S01700005544535F4153575F5333324B3134382E73726563D8
S113000000F001201104000059040000590400000C
S113001059040000590400005904000000000000C5
S1130020000000000000000000000000590400006F
S11300305904000000000000590400000D3A0000BB
S1130040EB1F0000F51F0000FF1F00000920000047
S1130050132000001D200000272000003120000094
S11300603B200000452000004F20000059200000E4
S1130070632000006D200000772000008120000034
S11300808B200000590400005904000059040000AA
S113009059040000590400005904000059040000E8
S11300A059040000590400005904000059040000D8
S11300B059040000590400005904000059040000C8
S11300C059040000590400005904000059040000B8
S11300D059040000590400005904000059040000A8
S11300E05904000059040000590400005904000098
S11300F05904000059040000590400005904000088
S11301005904000059040000590400005904000077
S11301105904000059040000590400005904000067
S11301205904000059040000590400005904000057
S11301305904000059040000590400005904000047
S11301405904000059040000590400005904000037
S11301505904000059040000590400005904000027
S11301605904000059040000590400005904000017
S11301705904000059040000153500001F35000023
S113018029350000333500003D35000059040000D6
S1130190590400004735000051350000590400009F
S11301A05B35000065350000590400005904000067
S11301B06F350000793500005904000083350000D4
S11301C08D35000059040000590400005904000052
S11301D059040000590400005904000059040000A7
S11301E05904000059040000590400005904000097
S11301F05904000059040000590400005904000087
S11302005904000059040000590400005904000076
S11303F0590400005904000059040000FFFFFFFFE6
S1130400FFFFFFFFFFFFFFFFFFFFFFFFFE7FFFFF79
S113041072B64FF000014FF000024FF000034FF0AE
S113042000044FF000054FF000064FF00007B846F7
S1130430B946BA46BB46BC4604488047044885468C
S11304400448804762B603F0F9FBFEE77507000035
S113045000F00120C1070000FFF7FEBF53B94AB9FD
S1130460002908BF00281CBF4FF0FF314FF0FF30B8
S113047000F07EB9ADF1080C6DE904CE00F006F889
S1130480DDF804E0DDE9022304B070472DE9F0470C
S1130490089D04468E46002B4ED18A4294466DD95F
S11304A0B2FA82F757B1C7F1200EB94020FA0EFE16
S11304B002FA07FC4EEA010E00FA07F44FEA1C495F
S11304C0210CBEFBF9F61FFA8CF809FB16EE41EA83
S11304D00E4106FB08F38B420AD91CEB010106F11D
S11304E0FF3280F027818B4240F22481023E614436
S11304F0C91AA4B2B1FBF9F009FB101144EA014492
S113050000FB08F8A0450AD91CEB040400F1FF33F2
S113051080F00E81A04540F20B810238644440EA29
S11305200640A4EB080400267DB1FC4000232C60A7
S11305306B603146BDE8F0878B4209D9002D00F08D
S11305401481002685E8030030463146BDE8F08773
S1130550B3FA83F6002E40F090808B4202D382429D
S113056000F2FD80841A61EB030101208E46002D08
S1130570EBD085E810403146BDE8F0871AB94FF05A
S1130580010CBCFBF2FCBCFA8CF7A7BBA1EB0C037F
S11305904FEA1C421FFA8CF80126B3FBF2FE210C31
S11305A002FB1E3341EA034108FB0EF38B4208D9D8
S11305B01CEB01010EF1FF3002D28B4200F2D1801C
S11305C08646C91AA3B2B1FBF2F002FB101143EA4A
S11305D0014408FB00F8A04508D91CEB040400F111
S11305E0FF3302D2A04500F2B7801846A4EB0804FA
S11305F040EA0E4098E7C7F1200301FA07F40CFA29
S113060007FC20FA03FED9404FEA1C424EEA040ECE
S1130610B1FBF2F64FEA1E4302FB16111FFA8CF8E7
S113062043EA014306FB08F1994200FA07F40AD9A8
S11306301CEB030306F1FF3080F08C80994240F2FA
S11306408980023E63445B1A1FFA8EF1B3FBF2F019
S113065002FB103341EA034100FB08F38B4208D943
S11306601CEB010100F1FF3E70D28B426ED90238BF
S11306706144CB1A40EA06468FE7C6F1200722FA06
S113068007F8B34001FA06F448EA030320FA07FC2A
S11306904FEA134EF9404CEA040CB1FBFEF94FEA61
S11306A01C440EFB19111FFA83F844EA014109FBAB
S11306B008F48C4202FA06F200FA06FA08D959182C
S11306C009F1FF3044D28C4242D9A9F102091944FC
S11306D0091B1FFA8CFCB1FBFEF00EFB10114CEA57
S11306E0014400FB08F8A04507D91C1900F1FF31AB
S11306F02AD2A04528D902381C4440EA0940A4EB78
S11307000804A0FB02894C45C446494616D313D0BD
S113071055B1BAEB0C0364EB010404FA07F7F34098
S11307201F43F4402F606C6000263146BDE8F0871B
S11307301846F4E61646DBE6C245E9D2B8EB020CED
S113074069EB03010138E3E70846D6E7704690E712
S11307508146BDE7064676E70238644446E73046FC
S113076005E7AEF1020E61442BE72E462846ECE67F
S1130770704700BF4FF0E023D3F8882D42F4700295
S1130780C3F8882DD3F8342F22F08042C3F8342FD5
S1130790084B094A5A605A6842F220121A604FF60E
S11307A0FF729A60054AD2F8003843F4F803C2F89D
S11307B0003870470020054020C528D900D00040EB
S11307C0264B274A9A4208D013462448254A13F850
S11307D0011B02F8011B9842F9D1234B234A9A4288
S11307E008D013462048224A13F8011B02F8011BC3
S11307F08342F9D11F4B204A9A4206D01346002166
S11308001C4A03F8011B9342FBD11C4B1C4A9A421D
S113081008D0134619481B4A13F8011B02F8011BA0
S11308208342F9D1184B194A9A4212D010B4184C89
S1130830A40808D01946002351F8040B42F8040B0D
S11308400133A342F8D1134B104A1A605DF8044BEC
S11308507047104B0C4A1A60704700BFE054000008
S1130860105200000004FE1F18550000E054000060
S1130870D006FE1FF40600200000002018550000DA
S11308801855000000000020000000000000FE1FBA
S11308900004000008ED00E0074B5B69DBB2042BA9
S11308A006D0802B06D0012B0CBF012004207047FA
S11308B0022070470320704700E00740044BD3F840
S11308C0003113F0807F1ABF024B18680020704774
S11308D0004006401000002010B584B00B460029EB
S11308E03BD0444AD2F8002112F0007F7DD1414A26
S11308F0D2F8001121F40001C2F800114FF0806118
S1130900C2F8001100213C4A1160002870D05A7AC4
S1130910120202F4E062197A01F007010A43354831
S1130920C0F80421DA79120102F030029979C90081
S113093001F008010A435979890001F004010A43CE
S1130940C0F808211A79012A29D0E2B1022A32D04A
S11309501A68294B1A60294C3BE000238DF80430B7
S11309608DF80C3001228DF808208DF809208DF8BF
S113097005208DF8063002238DF8073004AB204A99
S113098043F8102DADE71A7B002A14BF4FF4000280
S1130990002242F001021749C1F80021D8E71A7B6E
S11309A0002A14BF4FF40002002242F00112114940
S11309B0C1F80021CCE71A7B002A14BF4FF40302CC
S11309C04FF4403242F001020A49C1F80021BFE766
S11309D0013CFFF773FF18B9002CF9D1032005E09F
S11309E0002C14BF0020032000E0022004B010BD3E
S11309F00020FBE7004006401000002088E730009C
S1130A0000127A00084BD3F8003213F0807F09D02B
S1130A10054BD3F8083203F00103002B034808BF49
S1130A2000207047002070470040064000127A0002
S1130A3010B582B00B46002938D02D4AD2F80022D6
S1130A4012F0007F4FD12A4AD2F8001221F400019B
S1130A50C2F800120021C2F80012002846D09A7889
S1130A60120202F4E062597801F007010A432049B6
S1130A70C1F804221A7802F00102C1F80822597957
S1130A809A791B79002B14BF03230123002914BF77
S1130A90042100210B43002A14BF4FF4000200225A
S1130AA01343134AC2F80032642410E000238DF883
S1130AB0043001228DF805208DF806308DF80120D0
S1130AC08DF8022002AB03F8082DB6E7013CFFF7CE
S1130AD099FF18B9002CF9D1032005E0002C14BFAC
S1130AE00020032000E0022002B010BD0020FBE73C
S1130AF000400640054BD3F8003313F0807F1DBF40
S1130B00024BD3F8083302480020704700400640E7
S1130B10006CDC0210B582B00B46002932D0294AA1
S1130B20D2F8002312F0007F47D1264AD2F80013EE
S1130B3021F40001C2F800134FF08061C2F80013E1
S1130B4000283DD09A78120202F4E062597801F04C
S1130B5007010A431B49C1F804231A7802F003026F
S1130B60C1F808239A795B79002B14BF0123092368
S1130B70002A14BF4FF4000200221343C1F80033CB
S1130B8064240EE001238DF8053000228DF8062040
S1130B908DF801308DF8023002AB03F8082DBEE762
S1130BA0013CFFF7A7FF18B9002CF9D1032005E099
S1130BB0002C14BF0020032000E0022002B010BD6E
S1130BC00020FBE70040064008B50F4BD3F8003681
S1130BD013F0807F02D10023184608BDFFF76EFE94
S1130BE003460028F8D00849D1F80826C2F30222A7
S1130BF00132B0FBF2F3D1F80826C2F304421032FA
S1130C0003FB02F35B08E7E70040064010B584B03D
S1130C100C4699B13D4BD3F8003613F0007F72D1E6
S1130C203A4BD3F8002622F40002C3F800264FF012
S1130C308062C3F80026A0B9002065E000238DF887
S1130C4004308DF80B3001228DF808208DF809202E
S1130C508DF8053007228DF806208DF8073001AC99
S1130C60D8E7FFF72BFE63791B0203F4E0632279D4
S1130C7002F0070213432549C1F8043663781B02C6
S1130C8003F4E063A278120402F4F8121343C1F8E7
S1130C9008362378012B16D04BB1022B1FD04FF40A
S1130CA07A74FFF791FF48BB34B3013CF9E7E37969
S1130CB0002B14BF4FF40003002343F00103134A35
S1130CC0C2F80036EBE7E379002B14BF4FF40003BE
S1130CD0002343F001130D4AC2F80036DFE7E3793D
S1130CE0002B14BF4FF403034FF4403343F00103CC
S1130CF0064AC2F80036D2E7032005E0002C14BFF0
S1130D000020032000E0022004B010BD0040064093
S1130D102DE9F04180460D468C7801344E7806FB6F
S1130D2004460F7807FB0447CB78022B18D006D96A
S1130D30032B18D0062B19D1FFF746FF03E0012B34
S1130D4014D1FFF7BBFD0009B8F1020F47D0B8F189
S1130D50030F78D0B8F1010F0AD00020BDE8F0816C
S1130D60FFF750FEEFE7FFF7C5FEECE70020EAE7E8
S1130D70EA7802EB42015B4B53F821301B0904FB78
S1130D8003F4A04200F293800B46564901EB83031F
S1130D905B681B0906FB03F6B04200F28B8002EB92
S1130DA0420301EB83039B681B0907FB03F7B8426B
S1130DB000F28380AB781B0403F47023120602F064
S1130DC0706213432A7802F00F0213436A78120107
S1130DD0D2B21343444A53610020BDE8F081EA785B
S1130DE002EB4201414B53F821301B0904FB03F48D
S1130DF0A04265D80B463D4901EB83035B681B09A0
S1130E0006FB03F6B0425ED802EB420301EB830318
S1130E109B681B0907FB03F7B84257D8AB781B0440
S1130E2003F47023120602F0706213432A7802F06E
S1130E300F0213436A781201D2B213432A4A936110
S1130E400020BDE8F081EB7803EB4301284A52F817
S1130E502120120904FB02F4A0423AD80A4624498C
S1130E6001EB82025268120906FB02F6B04233D843
S1130E7003EB430201EB82029268120907FB02F7BB
S1130E80B8422CD8AA78120402F470221B0603F08C
S1130E90706313432A7802F00F0213436A78120135
S1130EA0D2B21343104AD3610020BDE8F08101207F
S1130EB0BDE8F0810120BDE8F0810120BDE8F081AA
S1130EC00120BDE8F0810120BDE8F0810120BDE8EA
S1130ED0F0810120BDE8F0810120BDE8F08101200E
S1130EE0BDE8F0817C4F000000400640D04F000078
S1130EF0284F000038B50546FFF7CEFC2946FFF71A
S1130F0007FF044658B9E8780A220849013A0B69F0
S1130F10C3F30363984204D0002AF7D10324204684
S1130F2038BD002A08BF0324F9E700BF004006408B
S1130F3010B504461B4B1B69C3F30363022B19D082
S1130F4006D9032B19D0062B1AD1FFF73DFE03E077
S1130F50012B15D1FFF7B2FC124B1B69C3F30343FA
S1130F600133B0FBF3F0012C0CD0D4B1022C11D01E
S1130F70002010BDFFF746FDEEE7FFF7BBFDEBE7F2
S1130F800020E9E7074B1B69C3F303130133B0FBEC
S1130F90F3F010BD034B1B6903F00F030133B0FBE7
S1130FA0F3F010BD0040064008B50A4BD3F8D80151
S1130FB0C0F3807040B103F588331B6813F0804F91
S1130FC003D10020FFF7B4FF08BD0120FFF7B0FFF5
S1130FD008BD00BF0050064008B5104B1B6AC3F3A0
S1130FE00363022B11D005D85BB1012B13D1FFF79A
S1130FF065FC08BD032B0BD0062B0CD1FFF7E4FDD9
S113100008BD0220FFF794FF08BDFFF7FBFC08BDF5
S1131010FFF770FD08BD002008BD00BF004006407A
S113102008B541B1012933D00020024610B1431E56
S113103022FA03F008BD052818D00CD906281ED0C2
S1131040072852D1FFF7C0FD02462B4BD3F8040604
S113105000F00700EAE7042847D1FFF7D3FC024673
S1131060254BD3F8040200F00700DFE7FFF742FD49
S11310700246214BD3F8040300F00700D6E7FFF73C
S11310801DFC02461C4BD3F8040100F00700CDE719
S1131090052818D00CD906281ED0072828D1FFF718
S11310A093FD0246144BD3F80406C0F30220BDE7B7
S11310B004281DD1FFF7A6FC02460F4BD3F8040207
S11310C0C0F30220B2E7FFF715FD02460A4BD3F83E
S11310D00403C0F30220A9E7FFF7F0FB0246064B26
S11310E0D3F80401C0F30220A0E7002002469DE7E4
S11310F0002002469AE700BF0040064008B5114BA5
S11311001B69C3F30113012B0BD02BB1022B11D09C
S1131110032B12D0002008BD00210620FFF780FF1A
S113112008BD084B186900F00200002818BF4FF4EE
S1131130FA4008BD044B186808BD00210520FFF7DC
S11311406FFF08BD008004400000002008B50C4B70
S11311501B6A13F0806F10D00A4B1B6813F0805F7A
S11311604FF0000114BF05200720FFF759FF054B7E
S11311705B6A0133B0FBF3F008BD002008BD00BF7B
S11311800080044000600740114B1B69C3F38103D6
S1131190022B07D0032B0ED0002B0CBF4FF4FA30D8
S11311A0002070470A4B186900F00200002818BF9D
S11311B04FF4FA407047064B186910F0020006D04D
S11311C0186900F00100002818BF4FF47A707047C6
S11311D00080044008B5364B5B6813F4006F65D09B
S11311E0334B5B68C3F30313082B42D009D90C2B90
S11311F044D018D80A2B56D046D80120FFF798FEC1
S11312001EE0042B27D006D9062B29D02DD8FFF7B2
S11312109DFF400814E0DBB1022B10D10121062010
S1131220FFF7FEFE0CE00E2B2BD030D30F2B06D194
S1131230204B1B6813F0005F32D1002000E0002037
S11312401B4B5B68C3F302230133B0FBF3F008BD0F
S1131250FFF7C2FEF4E701210420FFF7E1FEEFE708
S113126001210520FFF7DCFEEAE70020FFF760FE1E
S1131270E6E701210720FFF7D3FEE1E7FFF784FF4C
S1131280DEE7FFF73BFFDBE7FFF78EFED8E7FFF76C
S11312905DFF084B1B6813F0005FD1D04008CFE717
S11312A0FFF754FFCCE74FF4FA30C9E7002008BD3C
S11312B0008004400060074010B50C46202800F070
S11312C0D8804BD81A2800F0AC8025D8172800F015
S11312D0938010D8152800F08480162840F02081CF
S11312E09F4BDB68C3F38163022B00F226819D4A86
S11312F052F82330AEE0182800F08980192840F015
S11313000F81974BDB68C3F30143022B00F21B816F
S1131310944A52F823309DE01D2800F0988010D89C
S11313201B2800F089801C2840F0FA808C4BDB6875
S1131330C3F38153022B00F20C818A4A52F8233002
S113134088E01E2800F08D801F2840F0E980864B3D
S11313509B78DB0900F0898000237BE0262800F0DD
S1131360BC8022D8232800F0A3800ED8212800F0C6
S11313709280222840F0D4807B4B9B78DB09002BA1
S113138014BF00234FF4FA3364E0242800F09C8057
S1131390252840F0C580724B1B6CC3F38003002BDF
S11313A040F08C804FF4807057E0292800F0A6802C
S11313B009D8272800F09A80282840F0B180FFF748
S11313C0C5FE430846E02A2800F09C802B2840F004
S11313D0A780664B1B6813F0005F40F09D800023DC
S11313E038E05F4BDB68C3F30163022B00F2A38098
S11313F05C4A52F823302DE0594BDB68C3F3017388
S1131400022B00F29C80574A52F8233022E0544BBE
S1131410DB689B0F022B00F29480524A52F823306F
S113142018E04F4BDB68C3F38143022B00F28D803D
S11314304C4A52F823300DE0494BDB68C3F30153A7
S1131440022B00F28480474A52F8233002E0FFF76F
S1131450C1FE03460020002B65D0002C7FD0236002
S113146010BDFFF74BFE0346F4E7FFF78DFE03467E
S1131470F0E73D4B9B78DB096DD1394B1B6913F0C9
S11314800203E7D0364B1B6903F00103002B18BF9E
S11314904FF47A73DEE7344B9B78DB095DD1304B34
S11314A01B6903F00203002B18BF4FF4FA43D1E782
S11314B02B4B1B6CC3F30013002B39D00120FFF717
S11314C037FD03460020C6E7254B1B6CC3F3C0035E
S11314D0002BF3D14FF48070BFE7214B1B6CC3F397
S11314E04003002BEAD14FF48070B6E71C4B1B6C11
S11314F013F00103E2D14FF48070AEE7FFF754FD1F
S11315000346A7E7FFF722FE0346184A126812F0C3
S1131510005F9FD043089DE7FFF718FE034699E755
S11315200420002397E7042818BF4FF4807094E741
S11315304FF4807091E700238CE700238AE70023AF
S113154088E7002386E7002384E7002382E700235B
S113155080E700237EE700237CE700237AE710BDC1
S1131560008004400400002000D0074000600740D1
S113157030B583B0002301933E4B33F810309B0009
S113158003F1804303F5CA231D68C5F3C0051C6835
S113159004F00704AC421FD31A6812F0804F1BD02A
S11315A01B68C3F30263022B19D008D9032B1BD089
S11315B0062B1ED10720FFF733FD019005E0012B18
S11315C017D10620FFF72CFD01900134019BB3FBDA
S11315D0F4F405FB04440194019803B030BD0420E5
S11315E0FFF71EFD0190F0E70520FFF719FD0190BC
S11315F0EBE7462824D00CD948282DD026D34928F7
S113160030D04A2834D101A91C20FFF755FE00240C
S1131610DBE7442808D00DD8432829D101A9152097
S1131620FFF74AFE0024D0E701A91620FFF744FE85
S11316300024CAE701A91720FFF73EFE0024C4E7EF
S113164001A91820FFF738FE0024BEE701A91920DC
S1131650FFF732FE0024B8E701A91A20FFF72CFE99
S11316600024B2E701A91B20FFF726FE0024ACE703
S11316700024AAE7704E0000F0B5A9B028B30446D0
S11316800646002800F00A81684B1B69C3F3036314
S1131690032B00F0D180FFF72DFA002800F0BC8066
S11316A003238DF8073000228DF8062001228DF8DF
S11316B0052028A800F89C3DFFF71CFC05460028DF
S11316C000F0BA80284629B0F0BD01238DF80B3014
S11316D000228DF80C208DF80D308DF80E208DF839
S11316E008308DF809308DF80A308DF816308DF8F1
S11316F014308DF815208DF80F208DF810308DF8EA
S113170011308DF838300D928DF825304849069106
S11317108DF81C208DF824208DF81D308DF81E20A6
S113172002208DF81F008DF820308DF821308DF8BF
S113173030308DF828208DF82F208DF829200C21A9
S11317408DF82A108DF82B208DF82C308DF82D3043
S11317508DF83D3003218DF83C108DF84B308DF819
S113176041108DF840208DF83F308DF83E308DF8D3
S113177045008DF844308DF843208DF84210062042
S11317808DF849008DF848208DF847308DF84610C3
S113179028492691292125918DF84C308DF84D202A
S11317A08DF84E208DF84F208DF850308DF8543040
S11317B08DF853308DF852208DF851208DF88830F3
S11317C08DF889308DF88A308DF88B308DF88C3017
S11317D08DF88D308DF893308DF85830179218921B
S11317E019921AAB22A943F8042B9942FBD1012286
S11317F08DF88E208DF88F2000238DF890308DF891
S113180091308DF892308DF89C208DF89D208DF8C4
S11318109E3002AE344637E700210120FFF77AF903
S1131820054600287FF44EAF3AE700BF004006406B
S113183000127A000004FE1F3146E078FFF7F8F842
S11318400546002800F0C380FFF726F8022800F0C0
S1131850F880032800F0F880012800F0D280002DE1
S11318607FF430AF0022B54B1A6094F8303013B1D6
S1131870E26AB24B1A6094F8353053B1B0490A6A3F
S113188022F0706294F834301B0603F07063134343
S11318900B6294F84330002B40F0348194F84430C8
S11318A0E3B194F8455094F8463094F84720A5499C
S11318B0486820F400604860496821F47F61002D85
S11318C014BF4FF4006000201B01DBB2120202F4CB
S11318D0E06213430B4303439A4A536094F848303D
S11318E0DBB194F84A3094F849209649096921F00B
S11318F03F0194F84C00014394F84B00002814BFB6
S1131900022000209B0003F00C030B43120102F0A1
S11319103002134303438B4A136194F88030002B45
S113192044D0884B196C21F0010194F881200A43BA
S11319301A641B6C23F0020394F88220002A14BF5B
S11319400222002213437F4A1364136C23F004031E
S113195094F88320002A14BF042200221343794AF6
S11319601364136C23F0080394F88420002A14BF32
S1131970082200221343734A1364136C23F01003E8
S113198094F88520002A14BF1022002213436D4AC4
S11319901364136A23F0806394F88B20002A14BF25
S11319A04FF0806200221343664A136294F8503069
S11319B0002B00F0F580644B626D1A60A26D5A60D2
S11319C0E26D9A6004F1600001215E4DCCE004F107
S11319D01001607FFEF780FF054600287FF434AFD6
S11319E004F1200194F82800FFF710F90546FEF7EA
S11319F053FF022825D0032826D0012801D0002631
S1131A0001E004F13606002D7FF429AFF378032BAF
S1131A101DD08DF80730B3788DF8063073788DF8C3
S1131A200530337828A800F89C3DFFF763FA054693
S1131A3000287FF414AFE11DA07BFFF76BF8054687
S1131A400DE704F13A06DEE704F13E06DBE794F81D
S1131A5028300BBB637F93BBE378002B42D1012575
S1131A60002D7FF4FCAEE11DA07BFFF753F8054683
S1131A7000287FF4F4AEF3788DF80730B3788DF84E
S1131A80063073788DF80530337828A800F89C3D2B
S1131A90FFF730FA0546E2E606238DF80730022305
S1131AA08DF8063001238DF8053028A800F89C3DF8
S1131AB0FFF720FA0546637F7BB10128D0D10123CB
S1131AC08DF8073000228DF806208DF8053028A8FF
S1131AD000F89C3DFFF70EFA0546E378002BBFD0D3
S1131AE0012DBDD102238DF8073000238DF8063077
S1131AF08DF8053028A8012300F89C3DFFF7FAF97A
S1131B000546ADE704F136010120FFF701F905466A
S1131B1000287FF4D7AD04F13A010220FFF7F8F86A
S1131B20054600287FF4CEAD04F13E010320FFF703
S1131B30EFF8054600287FF4C5ADAFE600000020AD
S1131B40004006400080044004000020012B00F007
S1131B50A68000F2AB8026F04076120602F04072B6
S1131B603243EA600131C9B250F8042BEE684B1ECF
S1131B70DBB2032B00F0A180E8D9052B00F0A9808B
S1131B80C0F0A080062B00F0AB80072B40F0AF80A4
S1131B9026F44006920502F440021643574BDE60D9
S1131BA094F88630EBB1554A936E002090665168E4
S1131BB021F4805194F888301B0303F480530B43C1
S1131BC05360906694F887305BB194F889305B0079
S1131BD003F00E0394F88A2042F080521343474ADC
S1131BE0936614F18C0F3AD0D4F89030002B36D091
S1131BF0D4F88C309BB300214148424D01EB810263
S1131C00D4F890309B5C30F813309B0003F1804390
S1131C1003F5CA231E6826F080461E60D4F890306F
S1131C209F189E5CBB781B0603F0E063FA78D20031
S1131C3002F0080213433A7902F0070213437A7858
S1131C40002A14BF4FF080420022134330F81620BC
S1131C5045F822300131D4F88C309942CED394F82F
S1131C609430002B48D028498B7803F07F0394F8F4
S1131C70952082F0010243EAC213DBB28B7094F91F
S1131C809630002BBCBF20335BB21F490A7903F0A6
S1131C901F0302F0E00213430B71002512E526F046
S1131CA04066920602F0406232435AE726F04056FC
S1131CB0120702F04052324353E726F0404646EA08
S1131CC082724EE726F44036120402F44032324364
S1131CD047E726F44026920402F44022324340E7C8
S1131CE026F44016120502F44012324339E7EE603E
S1131CF007297FF637AF53E70025E3E4008004406B
S1131D00704E00000050064000D0074070B50446F5
S1131D100D46112807D92B2840F29A805A2840F200
S1131D209A80042070BD08285CD011D90D2870D089
S1131D302AD80A285FD059D30B2863D00C2840F046
S1131D40848000210520FFF76BF90346002016E08C
S1131D50032833D00BD905283AD034D306283CD0F5
S1131D60072872D1FEF730FF0346002007E0012860
S1131D7018D01DD80020FFF7DBF803460020002D03
S1131D8000F0DB802B6070BD0F2850D048D31028A2
S1131D9054D0112859D101210720FFF741F90346F6
S1131DA00020ECE70120FFF7C3F803460020E6E734
S1131DB00220FFF7BDF803460020E0E7FFF70AFA28
S1131DC003460020DBE7FEF71DFE03460020D6E7AE
S1131DD0FEF790FE03460020D1E7FEF76FFD0346B1
S1131DE00020CCE7554B1B680020C8E7FFF7F4F848
S1131DF003460020C3E700210420FFF711F903463E
S1131E000020BCE701210420FFF70AF90346002063
S1131E10B5E701210520FFF703F903460020AEE7EB
S1131E2000210620FFF7FCF803460020A7E7012164
S1131E300620FFF7F5F803460020A0E7002107205D
S1131E40FFF7EEF80346002099E70023042096E705
S1131E50FFF732FA70BD2C2805D804200023002D8A
S1131E606BD02B6070BDA0F13903DBB2122B07D805
S1131E70334A22FA03F313F0010F18BF0420EDD103
S1131E805A2C45D02F4B33F814202F4B53F82230C3
S1131E9013F0804F3ED14FF48070DFE70120FFF74D
S1131EA047F80346002841D100234FF48070D6E759
S1131EB00020FFF73DF803460028F5D036E0022065
S1131EC0FFF736F803460028EED02FE016F0080F8F
S1131ED006D116F0100F0BD100234FF48070BEE72B
S1131EE000212046FFF744FB034616F0100F04D0F0
S1131EF001212046FFF73CFB0346002B14BF0020C2
S1131F004FF48070ABE7FFF74FF803460020A6E7D5
S1131F100420A3E70D4B1E5D16F0200FBED116F072
S1131F20400FC5D116F0800FC9D1002316F0180F49
S1131F30CCD1592CE7D0002091E770BD00000020DF
S1131F4041010400704E000000500640245000007F
S1131F5008B5FFF7DBFE08BD08B5084B1B6853F84E
S1131F60203000F00F00064A1077D07723B15A686A
S1131F7012B1197B9868904708BD00BF1400002077
S1131F800080004038B5054600F00F0400222146C9
S1131F90094800F025F8094B1B6853F8253053B164
S1131FA0054A1477D477947701221A735A6812B1C8
S1131FB0197B9868904738BD0080004014000020C9
S1131FC008B5002200F00F01024800F009F80020D3
S1131FD008BD00BF008000400048704700800040FA
S1131FE00AB981767047C176704708B50020FFF7BB
S1131FF0B3FF08BD08B50120FFF7AEFF08BD08B563
S11320000220FFF7A9FF08BD08B50320FFF7A4FFCE
S113201008BD08B50420FFF79FFF08BD08B50520DB
S1132020FFF79AFF08BD08B50620FFF795FF08BD26
S113203008B50720FFF790FF08BD08B50820FFF793
S11320408BFF08BD08B50920FFF786FF08BD08B55A
S11320500A20FFF781FF08BD08B50B20FFF77CFFBE
S113206008BD08B50C20FFF777FF08BD08B50D20A3
S1132070FFF772FF08BD08B50E20FFF76DFF08BD1E
S113208008B50F20FFF768FF08BD38B50020FFF73B
S1132090A3FFC56A002404E06D080134E4B2102CE7
S11320A006D015F0010FF7D02046FFF76BFFF3E7DA
S11320B038BD000003680B6043684B6083688B6025
S11320C0C3680B6103698B61334BDB6CC3F303336C
S11320D0072B40D00DD90B2B49D021D90D2B4ED035
S11320E049D30E2B4FD00F2B51D14FF40023CB608B
S11320F008E0032B23D009D8012B18D01BD84FF4A8
S11321000023CB6000234B6100207047052B1AD0BD
S11321101DD84FF4E023CB604FF480534B61F3E7B9
S1132120092B1CD01FD84FF0FF33CB60EAE74FF0E8
S1132130FF33CB60E6E74FF0FF33CB60E2E74FF0CD
S1132140FF33CB60DEE74FF0FF33CB60DAE74FF0CD
S1132150FF33CB60D6E74FF0FF33CB60D2E74FF0CD
S1132160FF33CB60CEE74FF0FF33CB60CAE74FF0CD
S1132170FF33CB60C6E74FF0FF33CB60C2E74FF0CD
S1132180FF33CB60BEE74FF0FF33CB60BAE7CB68D9
S1132190B3F5002FC0D3B5E70080044038B5184C20
S11321A0247814F0800F01D1022038BD1D460C465E
S11321B0134B702119708121D9719C71552C15D044
S11321C003F01EF8772C19D1C0B9B5B10C4B9A7A2B
S11321D02A70DA7B1202AA80997B0A43AA805A7A6F
S11321E012026A801B7A1A436A8038BD110AD972B6
S11321F0D2B29A7203F004F838BD012038BD00BF92
S11322000000024038B50D4C247814F0800F01D141
S1132210022038BD094C702525708025E571A37115
S11322209DF8103063719DF8143083F0010323711D
S1132230E172A27202F0E4FF38BD00BF0000024068
S11322402DE9F04186B00C4616469846244B53F8C7
S11322502050244B53F82070384600F0CFFD8442C0
S113226005D34FF44073184606B0BDE8F08105EB82
S1132270C4056B790BB10223F5E71F2C04D804F0D5
S11322801F02012393403B6302236B719DF834309A
S1132290AB71F37AEB717368049333788DF80C3077
S11322A0337A8DF81430737A8DF81530B37A8DF84B
S11322B01630F37A8BB11C230293002301930C9BF9
S11322C00093434602AA2146384600F05DFF0346C8
S11322D00028C8D000226A71C5E70C230293ECE7FA
S11322E018000020845000002DE9F8430D461746DD
S11322F098461B4B53F820401A4B53F82060204655
S113230000F07CFD854204D34FF440731846BDE8C9
S1132310F883236813F0005F09D0636BC3F303638E
S11323205B0007339D4202D84FF44073EEE706EB9F
S1132330C50999F805300BB10223E7E7012289F8B2
S1132340052046F8357089F806802946204600F0B5
S1132350EBFD03460028D9D0002289F80520D5E7F3
S1132360845000001800002070B50646284B53F82E
S1132370204094F811316BB36379DBB2032B15D091
S1132380256894F81001FFF71BFE2B6813F4001F57
S113239002D16A68920C6A60C3F3034385F848303B
S11323A0AB681BBAAB60EB681BBAEB60002323601D
S11323B06379DBB2032B08D000236371D4F8005196
S11323C01DB194F81131012B17D0A3790BB16379A6
S11323D0CBB170BD0F4B53F8205000220521284685
S11323E000F0A2FD00220621284600F09DFD0022F7
S11323F00721284600F098FDD8E72346002208214B
S11324003046A847E1E7201D01F008FBE1E700BFE3
S1132410180000208450000038B50C460A4B53F8CD
S113242020500022094B53F8200000F07DFDE1000C
S11324306C18A37913B90023637138BD081D2844AF
S113244001F0ECFAF7E700BF180000208450000008
S113245070B50E460D4B53F820502C6814F0807460
S113246006D04EB92B6823F480332B604CB170BD79
S1132470284600F078FDF4E72B6843F480332B60A2
S1132480F4E7284600F062FDF1E700BF8450000045
S11324902DE9F8430F46164698464F4B53F8205003
S11324A02C6814F0807409D091462B6803F07F03E4
S11324B09A427CD94FF44070BDE8F883284600F076
S11324C052FDB1462B6803F07F039E4201D81F2EB4
S11324D06FD9284600F03AFD4FF44070BDE8F88308
S11324E0012F73D128F0604309F5087945F82930A4
S11324F06CE06B6BDB0D03F01E0307339E4212D8B6
S11325002B68C3F30123022B29D0032B37D0012BD3
S113251041D042460021384600F040FC09F50879D4
S113252045F8290052E03FB92C4B03EA884309F5EA
S1132530087945F8293049E0012F47D128F0604354
S113254009F5087945F8293040E0284600F0FEFCFA
S11325500020BDE8F8834FF44070BDE8F88342469C
S11325600221384600F01AFC030C43EA10630343CB
S113257043EA102309F5087945F8293026E0424654
S11325800321384600F00AFC09F508794FF0FF33BF
S113259045F829301AE042460121384600F0FEFB96
S11325A040EA104009F5087945F829000EE01F2A91
S11325B0D1D82B6813F0005F9BD1002F90D1074B2B
S11325C003EA884309F5087945F82930002CBCD082
S11325D00020BDE8F88300BF845000000000FC1F09
S11325E02DE9F047814688461746AD4B53F8204005
S11325F02368002B05DB204600F0B5FC204600F0E4
S113260028FC62687B7A5B0303F4005322F40052D3
S113261013436360204600F007FC204600F0A3FC4F
S1132620204600F023FC9F4B13F8093043B3236882
S113263023F400633A7A002A40F028812360226D53
S113264022F00042002313432365D4F8003C23F412
S11326501F43C4F8003C23683A7AC3F3C0239A4268
S113266003D001221046BDE8F087636B23F4805346
S1132670002A14BF4FF4805200221343636303E023
S11326803B7A002B40F0FC80BB79022B03D02368FB
S113269043F4003323607B79002B40F0B48097F837
S11326A03430012B00F0B88097F834301BB923681C
S11326B023F400432360F979204600F02FFD3968A4
S11326C0204600F0D9FE02460028CBD1236813F43B
S11326D0006F00F0AA80FB6838697E69BD69FA69F9
S11326E0216D01F000412165216D9B029BB24001E7
S11326F000F47870034306F01F0633436A4800EA87
S113270045552B43120402F4F81213430B4323657B
S11327103B6A786ABE6AFD6A3A6BD4F804CC6349B2
S11327200CEA0101C4F8041CD4F8041C9B0203F451
S1132730F8434001C0B2034306F0070633435C4844
S113274000EA05552B43120402F4E02213430B4321
S1132750C4F8043CB979204600F095FCBB79032BFE
S113276002D0204600F0F2FB524B33F9190010F16D
S1132770800F01D000F030FF4F4B33F9190000F007
S11327802BFF4E4B33F9190000F026FF4C4B33F965
S1132790190010F1800F01D000F01EFF09F10303AE
S11327A0474A32F9130010F1800F01D000F014FFF2
S11327B008F1040A544600252E463146204601F00D
S11327C040F9024600284FD1A67044F8046C08EB87
S11327D0C5035E7101350834202DEED197F83430ED
S11327E088F8113197F8353088F810310023C8F88B
S11327F00031C8F80431C8F80831C8F80C31314B3D
S113280043F829802EE73979204600F063FB02461D
S113281000283FF444AF25E7236813F0005F31D06C
S1132820236843F4004323603EE7FB6838697D690D
S1132830BE69FA69616821F007010904090C616045
S1132840616803F0070343EA06632D0405F4E025F9
S11328502B43C00400F460100343920502F44002C9
S113286013430B43636075E775B10024504601F0D0
S1132870F2F801340AF1080AAC42F7D10122F1E678
S11328800122EFE60122EDE60122EBE643F40063C8
S11328902360226D22F000424FF00043D3E600BFD4
S11328A084500000805000000000E07F188308C0BE
S11328B00000F03FAC500000985000009050000021
S11328C0A050000018000020F0B587B00E46154651
S11328D01F46134B53F82040204600F008FC18B163
S11328E04FF4407007B0F0BD6B6804932B788DF8FB
S11328F00C30AB7A8DF816302B7A8DF814306B7A55
S11329008DF8153006AA082342F8103D00230193E0
S113291000933B463146204600F036FCE2E700BF18
S1132920845000002DE9F04182B004460E4617465B
S11329309846104B53F82050284600F0D8FB28B195
S11329404FF44073184602B0BDE8F08100230193B0
S1132950089B009343463A4631462046FFF770FCF5
S113296003460028EED101223146284600F0DCFA65
S11329700346E7E784500000F0B585B00D461646DF
S11329801F46224B53F82040204600F0B0FB20B1F4
S11329904FF44073184605B0F0BD73680293337862
S11329A08DF80430337A8DF80C3005F01F030122C2
S11329B002FA03F61F2D98BF266304AA0F2342F8D8
S11329C0103D3B462946204600F0A6FC034600285D
S11329D0E0D104AA002342F8103D3B462946204694
S11329E000F09AFC03460028D4D104AA042342F838
S11329F0103D3B462946204600F08EFC0346002845
S1132A00C8D11F2DC6D82663C4E700BF8450000078
S1132A1070B504460D461646074B53F8200000F0E7
S1132A2066FB10B14FF4407070BD00233246294656
S1132A302046FFF759FC70BD8450000010B5074BC9
S1132A4053F82040064B53F82020D2F808310BB13C
S1132A500A219847204600F0E1FA10BD8450000096
S1132A60180000202DE9F04395B0904B53F8205006
S1132A70AB6A2A6B134003F0010300245BB90134F1
S1132A80202C25D0AB6A2A6B134004F01F02D340DC
S1132A9003F00103F2E7DBB10646854B53F82070DF
S1132AA02B6813F0005F01D0072C14D94FEAC40936
S1132AB007EB090898F80530DBB2012B00F08F8092
S1132AC007EBC4035B79DBB2022B55D01F2C1ED954
S1132AD015B0BDE8F083052C0FD0062C73D0072C5D
S1132AE0EED180232B63D7F80081B8F1000F08D012
S1132AF03B4600220321C04703E07B79DBB2012B74
S1132B0020D007EBC4035B79DBB2022B34D0AB6A71
S1132B10296B04F01F020B40D34013F0010FD7D0F0
S1132B202B6813F0005F00F0B280072C00F2AF8036
S1132B307B79002BCCD11F2CCAD8012303FA02F2D3
S1132B402A63C5E73968284600F072FA20232B630C
S1132B5000237B71D7F80081B8F1000F04D03B4605
S1132B60002201213046C0477B7943B307EBC403FD
S1132B705B79DBB2022BCAD107EBC40898F80730A3
S1132B80002B6CD11F2C04D804F01F0201239340A6
S1132B902B63002388F80530D7F80091B9F1000FB2
S1132BA004D03B46224604213046C84798F80530F5
S1132BB0002B8BD121463046FFF72EFC86E73046AA
S1132BC0FFF7D2FBD2E740232B63D7F80081B8F19B
S1132BD0000F96D03B4600220221C04791E72146D0
S1132BE0284600F0FDFB57F834202146284600F023
S1132BF0FCFB1F2C04D804F01F02012393402B6319
S1132C002B6813F0005F05D057F80930DB7813F018
S1132C100F0F17D0AB68002388F80530D7F8009160
S1132C20B9F1000F04D03B46224600213046C84784
S1132C3098F80530002B7FF443AF21463046FFF768
S1132C40EBFB3DE72146284600F085FA036823F0B4
S1132C5070630360036843F080630360DBE721462D
S1132C60284600F0BDFB01AA2146284600F0BDFB22
S1132C70AB689DF8073003F00F03042B89D11F2C98
S1132C8087D804F01F02012393402B6381E707EBED
S1132C90C4077B79002B7FF41BAF1F2C3FF618AFC2
S1132CA0012303FA02F22A6312E700BF84500000F2
S1132CB01800002010B5074B53F82040064B53F87A
S1132CC02020D2F808310BB10A219847204600F0A1
S1132CD099F910BD8450000018000020F8B5184B75
S1132CE053F82040236813F4804F28D00546154B31
S1132CF053F82060D4F8083B13F4003F0CD0D4F808
S1132D00083B43F40033C4F8083BD6F800711FB104
S1132D10334600220521B847D4F8083B13F4803F1A
S1132D200DD0D4F8083B43F48033C4F8083BD6F8FC
S1132D30004124B13346002206212846A047F8BDAD
S1132D408450000018000020034B53F82030C3F8CF
S1132D500011C3F8042170471800002008281BD96B
S1132D600C2812D006D80A280BD00CD8092812D166
S1132D700C2070470E280CD009D30F280BD140200B
S1132D807047102070471420704718207047202087
S1132D90704730207047002070470000012914D08C
S1132DA021B1022920D000231846704702F0404385
S1132DB030B10128F8D1520022F040421343F3E726
S1132DC00C4901EAC2421343EEE702F0404330B13A
S1132DD00128E9D1084901EA02421343E4E705491D
S1132DE001EAC2421343DFE7012801D90023DBE7EC
S1132DF01306D9E70000F83F0000FF3F0346084AE6
S1132E00904209D002F58052904207D00020054A32
S1132E10934208BF202070472020F8E72020704705
S1132E200040024000B00240036813F4801F0FD03A
S1132E30036823F000430360036823F080430360C6
S1132E40036823F080530360036813F0006FFBD121
S1132E5070470368002B07DB036843F000430360FB
S1132E60036813F4801FFBD07047000070B504465C
S1132E70036843F000730360236813F0007FFBD101
S1132E80236843F4805323602046FFF7B7FF04F11F
S1132E908001860007D00B4601EB8601002543F82C
S1132EA0045B8B42FBD104F5086230B11346324413
S1132EB0002143F8041B9A42FBD14FF0FF332361F6
S1132EC06361A3610022A2622363014B236270BD8C
S1132ED006003B0038B504460D46FFF78FFF014658
S1132EE0236803F40063002B14BF012000201AD1CF
S1132EF0236843F000532360626B2B0603F0706376
S1132F0022F07062134363634FF0FF33A36489B20A
S1132F1049B100236FF0604503F5087244F822506C
S1132F2001338B42F8D138BD1F2909D801F01F01A4
S1132F30012303FA01F12AB9836A23EA01018162B8
S1132F4000207047836A19438162F9E7036823F01C
S1132F5080530360036823F080430360036813F025
S1132F60807FFBD1704710B4036843F08043036053
S1132F70036843F0805303600368002B15DB0124CE
S1132F8000238360036813F4006F14D0036813F004
S1132F90807F08BF40F2D92118D18268036813F0FA
S1132FA0807F13D18A42F8D910E0036823F00043EC
S1132FB003600024E4E7036813F0807F06D182688D
S1132FC0036813F0807F01D1B32AF8D9036813F0A2
S1132FD0807F0BD1816A0268036843F00073036049
S1132FE0036813F0007FFBD1816202603CB903687F
S1132FF043F000430360036813F4801FFBD05DF8C3
S1133000044B7047026A034B134013B1024B036233
S1133010036A704706003B0002003000026A034B5B
S1133020134013B1014B0362036A704704000B00A1
S1133030F8B507460E4600F1880401F10805D0F8FA
S11330408000C0F30340FFF789FE86F84800D7F8F4
S11330508030336013F4001F10D0D7F884307360CD
S11330600646002348B1990854F8212012BA45F8BD
S113307021200433B342F6D3F8BDF8BDD7F8843029
S11330809B0C7360ECE708B5022923D008D8A1B1E2
S1133090012904D1436843F00803436008BD08BD17
S11330A0032907D0042904D1036843F000430360D3
S11330B008BD08BDFFF757FF08BD036823F40003EC
S11330C00360436823F008034360436823F4805398
S11330D0436008BD436843F480534360436823F06E
S11330E008034360036823F40033036008BD0368E6
S11330F003F07F038B420DD3036813F0005F0BD002
S1133100406BC0F303604000073081428CBF002055
S1133110012070470120704700207047036813F4B2
S1133120006F07D0D0F8003C23F4403343EA014158
S1133130C0F8001C7047036813F4006F09D0D0F87E
S1133140000CC0F301400330012303FA00F0C0B2C5
S113315070470820FBE738B504460D46FFF7EBFF40
S11331600830C0B24FF40073B3FBF0F3DBB2B5FB2D
S1133170F3F203FB12538008D20100FB032020303A
S113318004EB800038BD00002DE9F04707468A466D
S113319014469846089D9DF82490FFF7DCFF3B6891
S11331A003F07F039A4500F29A8006463B6813F0C9
S11331B0005F40F0A1803B6813F4006F07D0A37B4D
S11331C02BB1D7F8003C43F00043C7F8003CD4F8D7
S11331D008A05FFA8AF3402B9ABF4D4AD05CFF20C7
S11331E0074665B3FFF7BAFD3AF003030DD0002399
S11331F099088A00083255F8211009BAB1500433ED
S1133200A26822F003029A42F2D806F10801A268E9
S113321093420AD21D4483F0030215F801CB01F84E
S113322002C00133A2689A42F5D80546824206D20A
S113323082F00303607BC8540132AA42F8D1002310
S1133240336073602379012B32D0002322796AB969
S1133250736823F0FF5323F4E013736072682D4BFB
S113326003EA884848EA0202726000233F0407F434
S113327070271F4323680F2B2ED01C2B24D0B9F1A9
S1133280000F01D047F4801727F07067227BF2B15A
S11332901B0603F0706343F000431F43A37B0BB191
S11332A047F0804733681F4337600020BDE8F0874C
S11332B0736803F060437360726828F060431343DB
S11332C073604FF40013C1E747F48017DCE71B0673
S11332D003F070631F43E1E70020BDE8F0873B681B
S11332E013F0005F04D07B6B4FF44070BDE8F087AF
S11332F04FF44070BDE8F0877B6BC3F303635B005E
S113330007339A453FF657AF4FF44070BDE8F08756
S1133310B45000000000FC1FF8B504460E461546E4
S11333201F46FFF718FF236803F07F039E423FD830
S1133330236813F0005F46D10023036043602B79B8
S1133340012B21D02B797BB9036823F4C0030360DC
S1133350436823F0FF5323F4E013436042681F4B98
S113336003EA8743134343602B680F2B1ED0036883
S113337023F07063036002682B681B0603F070631C
S1133380134303600020F8BD036843F40013036093
S1133390036823F480030360436803F060434360DD
S11333A0426827F0604313434360CBE70020F8BD35
S11333B0236813F0005F03D0636B4FF44070F8BDD3
S11333C04FF44070F8BD636BC3F303635B000733D2
S11333D09E42B1D84FF44070F8BD00BF0000FC1FFE
S11333E008B5FFF7B8FE036808BD2DE9F041804633
S11333F01446FFF7B0FE054604F108070068C0F361
S11334000340FFF7ABFC06464046FFF794FE8642B6
S113341029D884F848602B68236013F4001F27D050
S11334206B68636036F0030008BF00230BD00023F1
S113343099088A000832AA5812BA47F8212004339E
S1133440DBB28342F4D39E420BD9D91D214483F0CD
S113345003020832AA5C01F8012F0133DBB29E4259
S1133460F5D1BDE8F0814046FFF765FE0646D0E79A
S11334706B689B0C6360D5E72DE9F84306460F465D
S1133480FFF759FE04467D1E29463046FFF763FECA
S11334902044083006F52073984203D94FF4407055
S11334A0BDE8F883A0463046FFF7A8FC874206D95A
S11334B04FF44070BDE8F8830020BDE8F88333681A
S11334C023F07F0305F07F051D433560316811F05B
S11334D000511CD1002FEFD000252C4608F108091B
S11334E03046FFF738FE04604460B8F1000F06D0A0
S11334F000F10803484403F8014B9842FBD101351D
S1133500EDB22946AF42EBD80020BDE8F883002095
S1133510BDE8F88308B50020FFF790FA08BD08B5A8
S11335200020FFF7C7FB08BD08B50020FFF7D6FB56
S113353008BD08B50020FFF795FA08BD08B50020BE
S1133540FFF790FA08BD08B50120FFF777FA08BD28
S113355008B50120FFF7AEFB08BD08B50120FFF751
S113356081FA08BD08B50120FFF77CFA08BD08B54B
S11335700220FFF763FA08BD08B50220FFF79AFBA3
S113358008BD08B50220FFF76DFA08BD08B5022092
S1133590FFF768FA08BD000010B40B4B0B4C9C42BB
S11335A00DD02AB100F11003084C54F823301360F5
S11335B01030064B43F820105DF8044B7047044B61
S11335C0044C9C42F8D1ECE7000000000000FE1F10
S11335D0E054000010520000420900F01F000123D3
S11335E003FA00F0014B43F82200704700E100E0C9
S11335F0054B1B68002B04DD013B034A1360002BC1
S113360000DD704762B6FCE72400002072B6024A6F
S113361013680133136070472400002000B583B0A1
S1133620022808D0032810D001280CD001A90B20AF
S1133630FEF78EFC03E01E2001A9FEF789FC019829
S113364003B05DF804FB2020F6E75520F4E7000002
S11336502DE9F04F83B00C468F68CE784D7991F800
S113366006A0002E75D0BFB2DFF8AC81404600F052
S1133670F1F8D8F8003023F4C0732278002A14BF7C
S11336804FF4807200221343C8F80030D8F8003099
S113369023F0C0036278002A14BF4022002213439F
S11336A0C8F80030D8F8002022F08402A378002B58
S11336B014BF042300231A434346C8F80020D8F853
S11336C0002022F08202760006F002061643C8F8B3
S11336D00060D8F8042022F07802ED0005F07805A7
S11336E01543C8F80450D8F8042022F00402BAF1B3
S11336F0000F14BF042300231A43C8F80420D8F889
S1133700041021F00301227902F003020A43C8F8ED
S11337100420D8F80820120C12041743C8F80870C3
S1133720D8F8001021F0B001627B120102F03002DF
S11337300A43C8F80020D8F8001021F08801A27BC1
S1133740D20002F008020A43C8F8002003B0BDE822
S1133750F08F91F80CB001462079FFF75FFFBBF1C1
S1133760010F01D0BFB27FE72A4A0023DFF8ACA0E3
S11337704FF0000BE0FB07AB50465946FCF76EFEDA
S113378002460B46CDE90023002908BFB0F1011F12
S113379036D30127BA46FDB2A7F12002C7F12003B0
S11337A00AFA02F92AFA03F349EA03090AFA07F8BA
S11337B05FEA59014FEA380042464B46DDE900BC56
S11337C01BEB000B4CEB010C58466146FCF746FE24
S11337D0002908BFB0F1011F15D30135EDB201373F
S11337E0112FD8D14FF6FF7735B1013DEDB24FF02F
S11337F0000A39E70027F7E74FF0010A002533E70D
S1133800DDE90001002550EA0103F3D0013887B255
S1133810EAE700BF40420F000000044020A1070077
S113382010B51446FFF714FF34B1044A136823F0AB
S1133830810343F00103136010BD00BF0000044086
S1133840034A136823F0810343F0010313607047B4
S113385000000440036823F0810303600023036035
S113386043608360704760B170B506460C4600251E
S1133870204600F041F801351834AE42F8D100205A
S113388070BD00207047816070470000184B98425B
S113389004D0184B98421ED0FF2070470D2911D038
S11338A007D90F2914D010D310291FD102F00D000D
S11338B0704721B1012919D142F00200704742F04A
S11338C00100704742F00400704742F0080070475E
S11338D002F00E00704719B1012904D0FF2070478F
S11338E002F00B00704702F007007047FF2070479A
S11338F000A0044000B0044038B504460068616884
S113390050F82120237A012B3FD0002B3AD0022BF0
S113391040D0657A2D0105F0100322F050051D43B7
S1133920A37A9B0103F040032B4323F4E065E37A7D
S1133930082B32D01B0203F4E0632B43227BD20317
S113394092B223F478231343627B120402F47022AC
S11339501343A27B0AB143F080732268616842F882
S113396021302168D1F8C02060680123834022EA15
S11339700302E37B83401343C1F8C030E37A012B95
S113398021D038BD22F00202C3E722F0010242F046
S11339900202BEE742F00302BBE71B4B5A6802F087
S11339A00F02FFF773FFFF280BD0174B5A6822F062
S11339B00F025A605A6800F00F0010435860002349
S11339C0B8E70023B6E721694B69227D22B1012AB9
S11339D00AD0012A05D10BE0616801228A4023EA5A
S11339E0020322695361CCE76068012282401343D9
S11339F0656808680122AA4020EA0200627DAA40A4
S1133A0002430A60EDE700BF00800440024A1368E5
S1133A1001331360704700BF2800002010B504462E
S1133A20FFF7F4FD2378DBB2FF2B08D023780133B2
S1133A30DBB223700024FFF7DBFD204610BD012418
S1133A40F9E738B504460D46FFF7E0FD2570FFF7AA
S1133A50CFFD002038BD00207047000008B508489D
S1133A60FDF70AFE07490320FFF7FDFE00F02CF8DE
S1133A7000F0CEF800F086F801F0DAF908BD00BFD6
S1133A80D004FE1F7006FE1FC9B910B582B00446EB
S1133A900B4B5B7B0BB102B010BD0A4A084B197B80
S1133AA00020FEF7B5FF0028F5D1064A536892F8C6
S1133AB0481008320092224601F0B4F8EBE7704750
S1133AC0B806FE1F4001002030B585B04FF4001148
S1133AD01848FFF7D8FE184A18490020FEF780FD61
S1133AE001210020FEF7B4FC002301930393082373
S1133AF00293134B5B7B33B1002212491046FFF74C
S1133B0023F905B030BD0E4C217804AD05F80C1D29
S1133B10A368227B0020FEF7BBFC63682A46217B56
S1133B200020FEF729FF084A217B0020FEF770FFE2
S1133B30E2E700BF00F00F403806FE1F2C00002013
S1133B40B806FE1F893A000040010020F0B587B096
S1133B500E4617460024039405949DF830208DF8F2
S1133B600C200493C5B20B4603AA29462046FEF74F
S1133B70ABFE0097334603AA29462046FEF7D2FE41
S1133B8007B0F0BD30B583B00F4C21460F48FEF7A7
S1133B9091FA63690BB103B030BD2546012301934B
S1133BA0002400942346042202212846FEF72AFB1F
S1133BB029460648FEF77EFA234622462146284631
S1133BC0FEF7ECFAE7E700BF8C010020F850000094
S1133BD00B4B1A6801321A600A490B6801330B60F7
S1133BE0094BA3FB02139B0803EB83039A4205D101
S1133BF00122064B1A700022014B1A60704700BF65
S1133C00A8010020F0060020CDCCCCCCAC010020D3
S1133C1008B5002207491046FFF702FE00220649B4
S1133C203A20FFF7B9FC3A20FFF7D6FC0020FFF753
S1133C3007FE08BD0C510000D13B000008B5FFF79A
S1133C400DFF044C00252378002BFDD0257001F0D6
S1133C50FBF8F8E7AC0100207047704770B4144CCF
S1133C60144A22601448154A0260154A6260154AD3
S1133C70426021460834FF2600230A6850F8045B9A
S1133C80D560D6800A6813600A68938051F8042BC3
S1133C905375D3751375D3749374937553741374E4
S1133CA08C42EAD1084A094B1A6070BC704700BFC5
S1133CB0EC030020B0010020E0010020EC01002012
S1133CC0C8010020EC02002034510000040400204C
S1133CD0014B1860704700BFE801002038B5044666
S1133CE0BAB1072A0FD8DA2323FA02F010F0010F31
S1133CF009D00D4B53F834200C4B1D680B46D26889
S1133D0002212046A847084B53F8343000225A7445
S1133D1038BD054B53F83020044B1D680B46D26860
S1133D200121A847EFE700BFEC030020E8010020D1
S1133D3038B50446C9B1082910D84FF4937222FA51
S1133D4001F313F0010F09D00D4B03EBC0035A68C4
S1133D500C4B1D68D388D2680421A847084800EB9F
S1133D60C400436800225A7438BD054B03EBC003FA
S1133D705A68044B1D68D388D2680321A847EDE72D
S1133D80EC030020E8010020B74B1B68002B00F077
S1133D9003822DE9F04F89B00DF115030DF11D01DA
S1133DA0002203F8012B8B42FBD1B04B1E68B04CB0
S1133DB004F108050DF11508DFF8ACA29946DFF807
S1133DC0B4B2CEE1042A00F01381052A40F0C68182
S1133DD01A7D42F0200208F8012BDAF800209268DC
S1133DE001218DF81410049219899A88D01D8142FA
S1133DF000F36381891AC9B20E460391DB681A4441
S1133E00404601F02BF89DF8143033448DF81430FB
S1133E10DAF800305A7D12B108228DF81420D9F84E
S1133E2000103A68DB681B680B441360BBF802009F
S1133E30079B009304AB0ECB00F048FFD9F8006059
S1133E403A6813689B1B002B40F33281012800F071
S1133E502181052800F028813B68DA7D002A00F0E2
S1133E607D815A7D002A40F0798101225A74D9F863
S1133E700060DAF80020D268526832441A606DE1BA
S1133E801A7C012A35D0302288F80020DAF8002084
S1133E90916803208DF814000491517D11B108211B
S1133EA08DF81410D168097B88F8011008F102011B
S1133EB00391D168497B88F80210D9F80010D268C0
S1133EC012680A441A60BBF80200079B009304AB13
S1133ED00ECB00F0FBFED9F800603B681A68921B19
S1133EE0002A7DDD012860D0052873D0DDF80C8020
S1133EF034E1312288F80020DAF80020D168097B07
S1133F0088F8011008F102010391D168497B88F80F
S1133F1002109168049103218DF81410517D11B1A0
S1133F2008218DF81410D9F80010D26812680A44D8
S1133F301A60BBF80200079B009304AB0ECB00F0A1
S1133F40C5FED9F800603B681A68921B002A1EDD82
S1133F5001280CD0052816D03B68DAF80020D26876
S1133F60D97C927B914218D2DDF80C80F6E0DA7CA1
S1133F700132DA74D9F80060DAF80020D2685268A5
S1133F8032441A60E8E700221A745A74E4E7012202
S1133F9099880020FFF7A2FEDEE707229988002017
S1133FA0FFF79CFEDDF80C80D8E00022DA740222D0
S1133FB05A74DAF80020D168097B5975D168097BF5
S1133FC0D975D9F80060D268926832441A60DDF875
S1133FD00C80C3E000221A745A74DDF80C80BDE032
S1133FE0012299880020FFF779FEDDF80C80B5E006
S1133FF0322288F80020DAF80020D168097B88F89A
S1134000011008F102010391D168497B88F802107C
S1134010916803208DF814000491517D11B1082199
S11340208DF81410D9F80010D26812680A441A6086
S1134030BBF80200079B009304AB0ECB00F046FED6
S1134040D9F8006039680B689B1B002B1ADD012826
S113405004D0052810D0DDF80C807FE000234B74D9
S1134060DDF80C807AE000BF04040020F006002094
S1134070EC030020C806FE1F00230B744B74DDF80C
S11340800C806BE0012289880020FFF727FEDDF811
S11340900C8063E000210846FFF74AFE3A689388E3
S11340A0039919449180D7E6002313745374D3E61B
S11340B001210020FFF73CFECEE6DB681A4407210D
S11340C0404600F0CBFE9DF8143007338DF81430D1
S11340D0D9F800102268DAF80030DB681B680B445A
S11340E01360BBF80200079B009304AB0ECB00F0F7
S11340F0EDFDD9F8006023681A68921B002A24DDBC
S1134100012806D005287FF4A7AE00221A745A7439
S1134110A2E61A7D013202F00F021A759A8807325C
S11341209A802268D37D1BB1537D0BB1013B53753B
S1134130937DF02B04D903F00F03642101FB03F3F7
S1134140D9F800603344136086E601210020FFF7AC
S1134150EFFD81E602210020FFF7EAFD0434AC42C2
S113416017D0274623685A7C002AF7D01968891B80
S11341700029F3DA032A3FF483AE3FF623AE012A83
S1134180E8D0022AEAD1032299880020FFF7A6FD8D
S1134190E4E709B0BDE8F08F704700BF70B582B0A6
S11341A0002300930193A94B1C680CB1082901D08A
S11341B002B070BD2368984203D063689842F7D177
S11341C002E00121A24B1970A24B1D682B7C012B2C
S11341D0EED00DF1FF3302F1080012F8011B03F8D1
S11341E0011F8242F9D16B7C052BE1D09DF80010B0
S11341F001F0F00201F00F06012B30D0102A00F07C
S11342008F8058D9202A40F08180022BD0D12B7D79
S1134210B34240F0E980731C03F00F032B75AB88A5
S11342202989DA1D92B28A42C0F0E4808B4210D20E
S11342300DF10101874EAA88E86811F8014B8454F6
S11342403568AA880132AA8001339BB22A899A422E
S1134250F1D80022A9881046FFF740FDA8E7302ACC
S1134260A6D17C4B5B685A7C012AA1D1022E00F0B6
S11342709F80774A1278012A00F0A080012E00F076
S1134280A580002E40F0AB80734A12681A60714B0F
S11342905B689DF80120DA755A759DF8022082F05A
S11342A08001702902D9F92A40F297807F229A75F9
S11342B005225A747CE7002A7FF47AAF721ED2B2C8
S11342C0062A3FF675AF2BBB624B1B6800229A800F
S11342D0B5B29DB1013D02AB13FA85F5063D0DF172
S11342E001025C4803689988DB6812F8014B5C544E
S11342F001688B8801338B80AA42F3D1554B1B682C
S1134300002299881046FFF7E9FC51E7302A7FF430
S11343104FAFA6E70622A9880020FFF7DFFCD3E70A
S11343204B4A1278012A32D09DF8012042EA06262F
S1134330072E7FF63DAF002B2DD1464B1B68002284
S11343409A801E81DA74DA88B2422AD30DF102010E
S1134350404803689A88DB6811F8014B9C54026852
S113436093880133938002AB9942F2D13B4B1C6892
S11343701389D26805210020A047364B1B6803220D
S11343805A7401221A75344A12681A6010E700221E
S11343902F4B1A700CE70622A9880020FFF79EFC19
S11343A0CBE700221A602B4B1B6804225A74FFE6E9
S11343B0002058740821FFF7BBFCF9E60020244ACA
S11343C0107058740521FFF7B3FCF1E6224A116816
S11343D0E26852680A441A60EAE69A7568E70521B9
S11343E00020FFF7A5FCE3E60422A9880020FFF7DC
S11343F075FCDDE60DF10101164803689A88DB6857
S113440011F8014B9C54026893880133938002ABEA
S11344109942F2D1104B19680C4B1B68DB689B68FE
S11344200B4413600B4B1A68D37D002B3FF4C0AED2
S1134430537D2BB1013BDBB25375002B7FF4B8AE37
S113444003235374044B1B681360B1E60404002077
S113445008040020EC030020F0060020E8010020FE
S1134460F0B583B0494B03EBC0035E68737C002B4B
S113447040F08780464C631D0D34002503F8015B32
S11344809C42FBD1434B53F82050002D7CD0F1606B
S113449032810021B1803D4B03EBC0035B68D975C9
S11344A0597501241C75AE6839490C710E6019895F
S11344B007290CD8D4B2364B5C71621C1A716B7D1F
S11344C0002B42D0324908230B718B1D0CE030497C
S11344D0C2F3032444F010044C718A7101225A740B
S11344E008230B710624CB1D0646284D05EBC00599
S11344F06A68D2682146184600F0B0FC6A68A4B223
S1134500938823449380244F39686A68214B53F875
S11345102630DB681B680B4413601D4B06EB460119
S11345201E4A02EB41025088DA6800920ECB00F07A
S1134530CDFB39686A6813685B1A002B1BDD012800
S113454005D00020507410741CE0154BCCE713897F
S1134550A3420AD9104B19680E4B53F82630DB6876
S11345605B680B44136001200CE000213046FFF728
S1134570DFFB012006E001213046FFF7D9FB0020D4
S113458000E0002003B0F0BD0020FBE7EC030020B6
S1134590F403002004040020F0060020C806FE1FD7
S11345A0FA03002030B583B00D4600230093019335
S11345B00868097961B16B1D0DF1FF324C1EE4B23C
S11345C00634254413F8014B02F8014FAB42F9D1EC
S11345D06A46FFF7E3FD03B030BD0000054A064B11
S11345E01360064B0649196006495160064A5A6031
S11345F0704700BF4C060020140600200C04002065
S113460014040020300600201405002010B40A4AC7
S113461000EB410352F823400023236001EB4001E7
S113462052F82120137453749374D374137553750F
S113463093755DF8044B70474C060020F8B5FFF7FE
S1134640CDFF1149114C01F108070022104E41F22F
S113465088350B681A600B685A6051F8043B9A81DC
S1134660DA8154F8040B98601A745A749A74DA74E0
S11346701A755A759A753068284498618F42E8D142
S11346800448FFF725FBF8BD4C0600200C0400206D
S1134690F00600208948000008B5424B1B68002B37
S11346A049D0404A5268002A45D05A7C92B9DA7CF3
S11346B01AB106225A740022DA749A7C32B10122A9
S11346C05A745A7D22B9DA7CFAB906E05A7D0AB1E5
S11346D000225A755A7C012A15D0324B5B68DA7D68
S11346E00AB35A7C052A3CD004225A740022DA7593
S11346F0DA8999680020FFF7B3FEE8B1294B5B68BB
S113470005225A742FE0DA7C22B106225A74002260
S1134710DA749A745A7D002ADFD000225A759A748A
S11347205A741A60D9E75A7C042AE1D01D4B5B689D
S11347305A7C052A17D008BD1B4A13780133DBB213
S11347401370052BF2D1174B5A680023537413606E
S1134750154A1370EAE7002010600121FFF756FFA5
S113476010E0104B5B6800210F4A11701A7D4AB1AA
S113477019750C4A1268117C0029ECD00021597477
S113478006235374074B5B689B7D002BD3D0054BEA
S11347901B681A7C0AB100221A7401210020FFF759
S11347A035FF08BD4C0600205406002010B5044611
S11347B0FFF752FA054B53F8343001229A745A7DAC
S11347C00AB100225A75FFF748FA10BD4C060020C2
S11347D038B504460D46FFF73FFA0D4B53F8343015
S11347E00122DA745A7D0AB100225A75FFF735FAAC
S11347F0074A52F834108D81064B1868064B1B6823
S11348004B6052F8342053680344136038BD00BF32
S11348104C060020F00600202C51000010B5044680
S1134820FFF71AFA044800EBC400436801221A7522
S1134830FFF713FA10BD00BF4C06002010B5044664
S1134840FFF70AFA044800EBC400436801229A7592
S1134850FFF703FA10BD00BF4C06002010B5044654
S1134860FFF7FAF9074B53F8343001225A75DA7C12
S11348700AB10022DA749A7C0AB100229A74FFF712
S1134880ECF910BD4C06002038B5044603291FD0AE
S11348901D4608D801290FD0022903D1C0B2FFF761
S11348A0DDFF38BD38BD042916D0052903D1C0B2B7
S11348B0FFF77CFF38BD38BDC0EB0023294608480C
S11348C0184400F0CBFA2946E0B2FFF781FF38BD67
S11348D0C0B2FFF7A3FF38BDC0B2FFF7AFFF38BDCA
S11348E01404002038B59D4B196801229C4B1A70A2
S11348F09C4B1A68936999420CD39B4B1B78652B8C
S113490002D00121994B1970944B1B6803F59C53F9
S113491008339361954B1B78002B40F04B810022A8
S11349208F4B1A708F4B19684B7C062B00D038BD07
S11349308F4B1B68002B00F0B98088688D4A10608B
S1134940884C6468A4685460002555818989118164
S1134950894A127812B90178884A1170874A127804
S11349601978914200F01081197C914215D093F886
S11349702010914208BF022100F00781804B1B7870
S11349806BB97F2323707B4B59684A705A68112195
S1134990917003225A81022405E00121F5E00022EE
S11349A0774B1A7003246F4B5B68724A5289DA8121
S11349B06C4B5B689B681A787F2A79D0674B1B68BD
S11349C0684A126803F59C53083393610022674BCD
S11349D01A70631EDBB2012B7BD9032C00F0878095
S11349E00022674B1A705D4B1D68042C00F089800F
S11349F05C4B1B681A68AA4299D81A7C002A40F0BA
S1134A00A98000221A6038BD02291FD102211B7B14
S1134A1019421DD17F212170564B586842705A6843
S1134A20917003225A81534B5B689B78132B29D0D6
S1134A30534B1B78012B14BF0224032400224E4B3A
S1134A401A70B0E70421E2E70821E0E70121DEE77C
S1134A504848A84704460228E5D0042814D0012871
S1134A6003D00022444B1A709DE7424B59681A68E0
S1134A70127840320A705A8901325A8100223E4B20
S1134A801A7090E70224D9E73A4B5A687F211170D3
S1134A905A681968097851705A68782191705A894E
S1134AA003325A810122344B1A707CE703247FE7D6
S1134AB09B78112B8DD07F2B8BD0284B1B68294AD8
S1134AC0126803F59C53083393610022274B1A7034
S1134AD07FE700210846FFF799FD224B5B685A7C6B
S1134AE0052A19BF04225A740122DA7575E70021D8
S1134AF00846FFF78BFD0022214B1A70174B1D68E7
S1134B0076E7184B1B681A7C72B11A689542FFF459
S1134B100EAF5A682A441A60124B1A680021517465
S1134B205B6804225A7438BD00210846FFF76EFD05
S1134B300C490A6801231374124B5B6853602B44BD
S1134B4013604B685A7C052A19BF04225A74012247
S1134B50DA754DE7042C7FF4EAAEDAE7F0060020BC
S1134B606D0600204C060020690600206C0600201B
S1134B70580600205C060020680600206E0600200F
S1134B80080400202C510000002103EB01139D6850
S1134B9075B10D49097803293FF454AF7FF634AF5A
S1134BA05F293FF451AF65297FF450AF10212EE700
S1134BB00324F8E60023054A13700121024A117008
S1134BC0034A1370AEE600BF690600206D0600209C
S1134BD06C060020074B084A1168896819605268FE
S1134BE092685A6000221A815A810122034B1A707A
S1134BF0704700BF5C0600204C06002069060020B8
S1134C0008B5034A034B1A60FFF7E4FF08BD00BF71
S1134C104C51000058060020014B1860704700BF3B
S1134C207006002030B583B0034C246814B1069D8F
S1134C300095A04703B030BD7006002030B587B0A2
S1134C40164C60681840164D2D68401B18BF012093
S1134C5004EB4014247A944201D007B030BD02938F
S1134C608DF80C1069B10A9B013B0DF10D0201395D
S1134C700A9C54FA81F113F8014F02F8014B8B425C
S1134C80F9D1064B03EB40139C69002CE5D0059B3E
S1134C90009302AB0ECBA047DFE700BF7C510000BE
S1134CA0C006002008B5064B064A11681960116A4F
S1134CB05960126C9A600448FFF7AEFF08BD00BF4C
S1134CC0C00600207C5100003D4C000084B030B58B
S1134CD083B007A880E80E009DF82030144A82F8BB
S1134CE0483051605BB10DF12102124806ACE51861
S1134CF0093512F8014B00F8014BAA42F9D1002200
S1134D0015460D4C1059814204BF1019057B203201
S1134D10602AF7D10095074A0020FEF717FF80B2FA
S1134D20B0FA80F0400903B0BDE8304004B07047E9
S1134D30740600207C0600207C510000024BDA88B7
S1134D40024B1A80704700BFEC510000E8060020B7
S1134D5010B584B0204B1A88204B03EB4213DC6956
S1134D601F4B1C60A37C3BB394E80F000DF1100CA7
S1134D700CE90F000023A374174B9B6813B1694619
S1134D80002098470022174B1A60174B1988174BBD
S1134D909A88B1FBF2F302FB13139BB233B9134BA2
S1134DA09B6803B1984700220F4B1A800E4A138860
S1134DB00133138004B010BD0A4A13680133136031
S1134DC0054A52689342E0D9034BDB6803B1984724
S1134DD00022044B1A60D8E7DC5100007C5100002B
S1134DE0EC060020E4060020E8060020EC51000058
S1134DF084B010B402AC84E80E000B4B03EB4010FB
S1134E00C4690A4A13880133138044B102AB0FCB3F
S1134E1084E80F000123A374238A013323825DF8FD
S1134E20044B04B0704700BF7C510000E006002032
S1134E3008B5FFF737FFFFF781FFFEF70FFFFFF716
S1134E40FDFBFFF7DDFE08BD08B5FFF781FFFEF7A8
S1134E509BFFFFF721FCFFF745FD08BD39B1013A7F
S1134E60411812F8013F00F8013B8842F9D170471C
S1134E70000000000000000000000000000000002E
S1134E80000000000000000000000000000000001E
S1134E90000000000000000000000000000000000E
S1134EA000000000000000000000000000000000FE
S1134EB000000000000000000000000000000000EE
S1134EC00000000000000000000073003200210018
S1134ED0610049004A004B004C004D003D00540065
S1134EE055000000240025002B003600310000008E
S1134EF0200000007900380039003A0026006E00D6
S1134F006F007000710000003B0027005A0066002B
S1134F10670037002C002D002E0040006A006B0053
S1134F206C0076000000000000000000000000009B
S1134F300000000000FCAC06007E5603003FAB01FD
S1134F4000FCAC06007E5603003FAB0100FCAC063F
S1134F50007E5603003FAB0100000000000000008B
S1134F60000000000000000000000000000000003D
S1134F7000FCAC06007E5603003FAB0100000000BD
S1134F80000000000000000000B4C404006CDC0257
S1134F90B0F3960100B4C404006CDC02B0F39601D3
S1134FA000B4C404006CDC02B0F3960100000000FD
S1134FB000000000000000000000000000000000ED
S1134FC00000000000B4C404005A6202B0F3960169
S1134FD000000000000000000000000000093D0087
S1134FE000093D0040420F0000093D0000093D005A
S1134FF040420F0000093D0000093D0040420F00FF
S1135000000000000000000000000000000000009C
S1135010000000000000000000093D0000093D0000
S113502040420F00000000000000000000000000EB
S1135030000000000000000000000000000000006C
S11350400000000000000041414141410000000017
S1135050002020202020202020202020200040404C
S11350604040400080005648484848484848480066
S11350703030303030303030303630303020000096
S113508001010100004002400050024000B0024013
S11350904E0055005C0000004F0056005D0000000B
S11350A0510058005F00520059006000500080FF1A
S11350B080FF00000001020304050607080909092E
S11350C0090A0A0A0A0B0B0B0B0C0C0C0C0D0D0D28
S11350D00D0D0D0D0D0E0E0E0E0E0E0E0E0E0E0EF1
S11350E00E0E0E0E0E0F0F0F0F0F0F0F0F0F0F0FD1
S11350F00F0F0F0F0F000000000000000000180049
S11351000000001000000014000000000001000076
S113511000000000E803000001000000140000008B
S1135120460000009100000000051000320000005D
S113513088130000DF070000F0070000F1070000FB
S11351402C510000000001000201000000000000DA
S1135150000000000000000000000000000000004B
S1135160000000000000000000000000000000003B
S1135170000000000000000000000000F007000034
S1135180FF07000000001000000000000100000004
S113519000000000F14D0000CC060020F1070000E3
S11351A000000000000010000000000000000000EB
S11351B001000000000000000000000000060000E4
S11351C000000000000010000100000000000000CA
S11351D003000000000000000000000000000000C8
S11351E002000000A54500000000000003000000CC
S11351F06400020000000000F8B500BFF8B500BF6D
S10B52005FF800F0D106FE1F67
S10B520884B2FF7F01000000E5
S11352104C010200004D010200002D010000002E8F
S1135220010000002F0100000042010200003001D3
S11352300000003A010000003B010000003C0100B6
S113524000004E0102000040010000004301020082
S11352500044010200004501020000460102000072
S11352604701020000480102000049010200004A0F
S1135270010200004F010200005001020000510130
S11352800200005201020000530102000054010216
S113529000005501020000560102000057010200FF
S11352A00058010200003D010000003E0100000022
S11352B0310100000032010000003301000000341D
S11352C00100000035010000005901000000360112
S11352D00000003701000000380100000000000059
S11352E001010101010100000101000001000100B0
S11352F000127A0000010003010100000001000017
S113530000000C000101000001000000000000008A
S11353100000000003010100000303000102030177
S1135320000600010101000001030001010000006A
S11353300000000000000000000000000000000069
S11353400000000000000000000000000000000059
S11353500000000000000000000000000000000049
S11353600101010101010101000000012900000007
S11353706805FE1F010100004C010200004D0102FE
S11353800000520102000053010200005401020017
S113539000560102000057010200005801020000FB
S11353A04F010200005001020000510102000055AB
S11353B00102000043010200004401020000450113
S11353C002000046010200004701020000480102F9
S11353D0000049010200004A0102000042010200EB
S11353E0004E010200002D010000002E010000000B
S11353F02F01000000300100000040010000003DCA
S1135400010000003E0100000036010000003701E9
S1135410000000380100000059010000003A0100BA
S113542000003B010000003C0100000031010000CD
S113543000320100000033010000003401000000CC
S11354403501000000000000100000000000000012
S1135450000000000700000004000000010000003C
S11354600500000001000000000000000000000032
S11354700000000000000000000000000000000028
S1135480009004401500000000000001000000002E
S113549000F00F400100000000D0044004000000B0
S11354A000000005000000000000000000000000F3
S11354B000D00440050000000000000500000000CA
S11354C0000000000000000000000000F0070000E1
S11354D0FF070000000000000000010000000000C1
S11354E038B505460B4A137843F08003137014460D
S11354F0237813F0800F05D1AB69B3F1FF3FF7D0E8
S11355009847F5E7034B1B7813F0710F14BF012084
S10B5510002038BD0000024038
S9030411E7
