:1000000000380020110400005104000051040000D9
:1000100000000000000000000000000000000000E0
:10002000000000000000000000000000510400007B
:10003000000000000000000051040000FD3B000033
:1000400019200000232000002D2000003720000090
:100050004120000051040000510400005104000040
:100060005104000051040000233700002D37000028
:10007000510400005104000051040000510400002C
:10008000510400005104000051040000510400001C
:10009000510400005104000051040000510400000C
:1000A00051040000510400005104000051040000FC
:1000B00051040000510400005104000051040000EC
:10040000FFFFFFFFFFFFFFFFFFFFFFFFFE7FFFFF7D
:1004100072B60B490A4A0A4B094C094D084E084F5F
:10042000B846B946BA46BB46BC4606488546064865
:1004300080470648804762B603F0F0FCFEE7000004
:100440000000000000380020D5070000F907000078
:10045000FEE7C046002243088B4274D303098B4257
:100460005FD3030A8B4244D3030B8B4228D3030C84
:100470008B420DD3FF22090212BA030C8B4202D326
:100480001212090265D0030B8B4219D300E0090A4E
:10049000C30B8B4201D3CB03C01A5241830B8B4257
:1004A00001D38B03C01A5241430B8B4201D34B0340
:1004B000C01A5241030B8B4201D30B03C01A5241A5
:1004C000C30A8B4201D3CB02C01A5241830A8B422A
:1004D00001D38B02C01A5241430A8B4201D34B0213
:1004E000C01A5241030A8B4201D30B02C01A524177
:1004F000CDD2C3098B4201D3CB01C01A524183092B
:100500008B4201D38B01C01A524143098B4201D364
:100510004B01C01A524103098B4201D30B01C01A8F
:100520005241C3088B4201D3CB00C01A5241830809
:100530008B4201D38B00C01A524143088B4201D336
:100540004B00C01A5241411A00D201465241104696
:100550007047FFE701B5002000F006F802BDC04675
:100560000029F7D076E770477047C046002B11D1BD
:10057000002A0FD1002900D1002802D00021C94350
:10058000081C07B4024802A14018029003BDC046EF
:10059000D9FFFFFF03B4684601B5029800F030F8B8
:1005A000019B9E4602B00CBC7047C046F0B5CE46DB
:1005B000474615042D0C2E0080B50704140C3F0C83
:1005C0009946030C7E435D43674363437F19340CB4
:1005D000E4199C46A54203D980235B029846C44493
:1005E0004B46514343433604360C250C24046544E2
:1005F000A4195918491920000CBC90469946F0BD21
:10060000F0B557464E464546DE46E0B5040083B099
:100610000D00924699468B422FD82CD04946504621
:1006200000F0AEF829000600200000F0A9F8331A07
:100630009846203B9B4600D574E053465A4693406B
:100640001F005346424693401E00AF4229D826D091
:100650005B46A41BBD41002B00DA79E00022002399
:100660000092019301235A4693400193012342468D
:100670009340009319E08242D0D9002200230092D7
:1006800001930C9B002B01D01C605D6000980199C8
:1006900003B03CBC90469946A246AB46F0BDA3428F
:1006A000D6D900220023009201934346002BE8D0C4
:1006B000FB0772081A4346467B080EE0AB4201D1A5
:1006C000A2420CD8A41A9D41012024196D41002199
:1006D000013E24184D41002E06D0AB42EED9013E1A
:1006E00024196D41002EF8D15B460098019900193C
:1006F0006941002B22DB2B005A46D3402A00444696
:10070000E2401C005B461500002B2CDB26009E40BF
:10071000330026004746BE403200801A99410090BF
:100720000191AEE7424620239B1A5246DA404146E9
:1007300013004A468A4017001F4382E7424620239F
:100740009B1A2A0046469A402300F3401343D5E7FC
:100750004246202300219B1A00220091019201228F
:10076000DA40019282E74246202326009B1ADE40AF
:100770002F00B446974066463B003343C9E7C04666
:1007800010B5002903D100F007F8203002E0081C62
:1007900000F002F810BDC0461C2101231B04984242
:1007A00001D3000C10391B0A984201D3000A083902
:1007B0001B09984201D30009043902A2105C4018B9
:1007C0007047C0460403020201010101000000005D
:1007D00000000000044B054A5A605A68044A1A6037
:1007E000044A9A607047C0460020054020C528D9B9
:1007F00020210000FFFF000030B5274A274B9A4216
:1008000009D02649891A0023254C1000C25CE25405
:1008100001338B42FAD1234A234B9A4209D0224911
:10082000891A0023214C1000C25CE2540133994222
:10083000FAD11F4A1F4B9A4206D0130000211D4ACD
:10084000197001339342FBD11B4A1C4B9A4209D0C9
:100850001A49891A00231A4C1000C25CE254013371
:100860009942FAD1174A184B9A4210D01749890871
:1008700009D000230022134C1348C558E55001321B
:1008800004338A42F9D1124B0E4A1A6030BD104B24
:100890000D4A1A60FAE7C04640540000985600001E
:1008A000C000002098560000D05600001803002019
:1008B000C0200020B4270020D0560000D0560000F1
:1008C00000FCFF1F0000002000000000C00000002E
:1008D00008ED00E0084B5A69FF231340042B06D0B3
:1008E000802B06D00120012B02D0042000E0022042
:1008F00070470320FCE7C04600E0074080235B0010
:10090000034AD3580020DB0101D5024B1868704719
:1009100000400640D020002030B585B000293ED0F0
:1009200080235B003E4AD258FE3B920173D43C4A7E
:10093000FE33D4583B4D2C40D4508024E404D45092
:100940000022394B1A60002868D04B7A1B02E02243
:10095000D2001340087A072202401343304C82220F
:100960005200A350CA791201302313408879C00085
:1009700008220240134348798000042202401343B6
:1009800084225200A3500B79012B21D0002B15D0CB
:10099000022B28D00A68244B1A60244C2FE0002335
:1009A0006A4613711373012269460A724A724A71C8
:1009B0008B710233CB711E4B0093B1E70B7B5A1E38
:1009C0009341DB0501221343FF3215488350E1E7D1
:1009D0000B7B5A1E9341DB05164A134380225200BB
:1009E0000F488350D6E70B7B5A1E9341DB05124A12
:1009F0001343802252000A488350CBE7013CFFF7A3
:100A00007DFF002803D1002CF8D1032303E000234D
:100A1000002C00D10333180005B030BD0023FAE7E5
:100A200000400640FFFF7FFFD020002088E7300015
:100A300000127A00010001000100030080239B00E6
:100A4000064AD3580020DB0105D582239B00D358EA
:100A5000DB0701D5024870470020FCE70040064054
:100A600000127A0030B583B000293BD080239B0070
:100A70002B4AD258FF3BFF3B92014BD4284AFF330D
:100A8000FF33D458274D2C40D4500024D450002894
:100A900043D08B781B02E022D20013404878072213
:100AA000024013431E4A812080001350087801231E
:100AB000034082208000135048798A790979032302
:100AC000002900D1023B0100481E814189000B43EF
:100AD000511E8A41D20513438022920010498B5047
:100AE00064240BE000226B461A71012369464B71A6
:100AF0008A714B708B700B70B8E7013CFFF79EFF5B
:100B0000002803D1002CF8D1032303E00023002C9C
:100B100000D10333180003B030BD0023FAE7C0460C
:100B200000400640FFFF7FFFC0239B00054AD358CB
:100B3000DB0104D5C2239B00D35803487047002033
:100B4000FCE7C04600400640006CDC0230B583B0D4
:100B5000002935D0C0239B00274AD2580223920196
:100B600045D4254AC0239B00D458244D2C40D45052
:100B70008024E404D45000283CD08B781B02E0226F
:100B8000D200134048780722024013431A4AC1207A
:100B900080001350087803230340C22080001350C4
:100BA0008B7949790122002900D10832591E8B41E5
:100BB000DB051343C02292000F498B5064240AE0E6
:100BC00001236A465371002269468A714B708B700B
:100BD0000A70BFE7013CFFF7A7FF002803D1002CF4
:100BE000F8D1032303E00023002C00D103331800C5
:100BF00003B030BD0023FAE700400640FFFF7FFF4F
:100C000070B5C023DB000D4AD3580020DB0100D4AF
:100C100070BDFFF773FE0028FAD0084DC124E40030
:100C200029594905490F0131FFF714FC2A59D2020D
:100C3000D20E103250434008EAE7C046004006405A
:100C400030B585B00C1E16D0C023DB00394AD2580F
:100C5000022392010CD4374AC023DB00D158364D11
:100C60002940D1508021C904D150002300280ED141
:100C7000180005B030BD01AC00232370E3710122E0
:100C80002271627163700632A270E370DCE7FFF7D5
:100C900035FE62791202E020C0000240237907216C
:100CA00019400A432349254BCA5063781B0203406D
:100CB000A2781204F820400302401343C122D2005C
:100CC0008B502378012B18D0002B0BD0022B1FD078
:100CD000FA24A400FFF794FF002826D1002C22D08C
:100CE000013CF7E7E3795A1E9341DB0501221343E8
:100CF000C022D2000F498B50EAE7E3795A1E934194
:100D0000DB050F4A1343C022D2000A498B50DFE7AC
:100D1000E3795A1E9341DB050A4A1343C022D200ED
:100D200004498B50D4E70323A2E70023002C9FD172
:100D300003339DE700400640FFFF7FFF04060000ED
:100D40000100010001000300F0B5C64600B5070030
:100D50000D008C7801344E78013666430B780133F0
:100D600063439846CB78022B19D0DAB2022A06D90F
:100D7000032B17D0062B18D1FFF742FF03E0012BFE
:100D800013D1FFF7BBFD0309022F49D0032F00D178
:100D90007FE00020012F0AD004BC9046F0BDFFF791
:100DA0004DFEF0E7FFF7C0FEEDE70020EBE7E97846
:100DB0004A00521892005548125812095443012013
:100DC000A342E9D84A00521892005048821852684B
:100DD000120956430120B342DED84A00521892004D
:100DE0004A48821892681209474657430120BB427D
:100DF000D2D8AB781B04F022120313400906F0226C
:100E00001205114019432A780F23134019436A78B9
:100E10001201FF23134019433D4B59610020BBE7EA
:100E2000E9784A00521892003A481258120954437D
:100E30000120A342B0D84A005218920035488218C7
:100E40005268120956430120B342A5D84A005218ED
:100E50009200304882189268120947465743012091
:100E6000BB4299D8AB781B04F02212031340090649
:100E7000F0221205114019432A780F231340194319
:100E80006A781201FF2313401943214B9961002016
:100E900082E7EA785100891889001F480958090932
:100EA0004C430120A34200D976E7510089188900FC
:100EB00019484118496809094E430120B34200D935
:100EC0006AE751008918890013484118896809099F
:100ED00047464F430120BB4200D95DE7AB781B0476
:100EE000F02109030B401206F02109050A401A43BC
:100EF00029780F230B401A4369780901FF230B401F
:100F00001A43034BDA61002046E7C046A0510000B7
:100F100000400640F45100004C51000070B5040040
:100F2000FFF7D8FC2100FFF70FFF00280CD1E57870
:100F30000A22084C0F21013A23691B0E0B409D42E7
:100F400003D0002AF7D1032070BD002AFCD1032072
:100F5000FAE7C0460040064010B504001C4B1B6970
:100F60001B011B0F022B1AD006D9032B1AD0062BFC
:100F70001BD1FFF745FE03E0012B16D1FFF7BEFCA6
:100F8000134B19690903090F0131FFF763FA012CAB
:100F90000DD0002C02D0022C11D0002010BDFFF784
:100FA0004DFDEDE7FFF7C0FDEAE70020E8E7084B5D
:100FB00019690906090F0131FFF74CFAEEE7044BF6
:100FC0001B690F2119400131FFF744FAE6E7C046DB
:100FD0000040064010B5EC235B00084AD0584000A2
:100FE000C00F06D0064B1B685B0003D40020FFF740
:100FF000B3FF10BD0120FFF7AFFFFAE70050064036
:101000000060074010B5104B1B6A1B011B0F022B21
:1010100012D006D8002B0BD0012B13D1FFF76EFC9A
:1010200009E0032B0BD0062B0CD1FFF7E9FD02E002
:101030000220FFF791FF10BDFFF700FDFBE7FFF770
:1010400073FDF8E70020F6E70040064010B50029E0
:1010500009D0012937D000200022002802D0013811
:10106000C240100010BD052819D00CD9062820D088
:10107000072858D1FFF7C4FD02002E4B2E49C8584F
:1010800007231840E9E704284DD1FFF7D7FC0200F9
:1010900081239B002849CB5807201840DDE7FFF744
:1010A00043FD0200C1239B002349CB580720184071
:1010B000D3E7FFF723FC020082235B001E49C858D8
:1010C000FD3B1840C9E7052819D00CD9062820D0C7
:1010D00007282BD1FFF794FD0200164B1649CB5879
:1010E0005B05580FB9E7042820D1FFF7A7FC0200E1
:1010F00081239B001049CB585B05580FADE7FFF7E4
:1011000013FD0200C1239B000B49CB585B05580F10
:10111000A3E7FFF7F3FB020082235B000649CB58ED
:101120005B05580F99E70020002296E70020002277
:1011300093E7C046040600000040064010B5114B7E
:101140001B699B069B0F012B0CD0002B05D0022B9B
:1011500010D0032B11D0002003E000210620FFF760
:1011600075FF10BD074B1B6902201840F9D0FA200B
:10117000C001F6E7044B1868F3E700210520FFF7EC
:1011800065FFEEE700800440C020002010B50C4B46
:101190001B6A00205B010CD50A4B1B68DB0009D5DC
:1011A00000210530FFF752FF064B596A0131FFF766
:1011B00051F910BD00210720FFF748FFF4E7C046B2
:1011C0000080044000600740114B1B691B079B0F08
:1011D000022B08D0032B0ED00020002B00D070472C
:1011E000FA204002FBE70A4B1B6902201840F6D0A8
:1011F000FA20C001F3E7064B1B6902201840EED02D
:10120000034B1B6901201840E9D0FA208000E6E773
:101210000080044010B5344B5B6800201B0538D5B6
:10122000314B5B681B061B0F082B44D009D90C2BD4
:1012300046D019D80A2B54D048D80120FFF78CFE8D
:1012400020E0042B29D006D9062B2BD02FD8FFF76E
:101250009DFF400816E0002B1CD0022B11D101216C
:101260000620FFF7F3FE0DE00E2B2CD031D30F2B11
:1012700007D11E4B1B6800209B0003D5FFF786FF9C
:1012800000E00020184B59684905490F0131FFF76C
:10129000E1F810BDFFF7B6FEF4E701210420FFF7E7
:1012A000D5FEEFE701210520FFF7D0FEEAE7002099
:1012B000FFF752FEE6E701210720FFF7C7FEE1E74F
:1012C000FFF782FFDEE7FFF739FFDBE7FFF782FE7C
:1012D000D8E7FFF75BFF054B1B689B00D2D54008A2
:1012E000D0E7FA204002CDE70080044000600740CC
:1012F00010B50C00202800D1DAE052D81A2800D10D
:10130000B2E027D8172800D199E011D8152800D1CC
:101310008AE0162800D01CE1934BDA681201920F84
:101320000023022A00D9B8E09200904BD358B4E0D1
:10133000182800D18EE0192800D00AE18A4BDA681B
:101340009203920F0023022A00D9A6E09200874B55
:10135000D358A2E01D2800D19CE011D81B2800D151
:101360008DE01C2800D0F4E07F4BDA681202920F67
:101370000023022A00D990E092007C4BD3588CE0E5
:101380001E2800D190E01F2800D0E2E0784B9A7828
:10139000D2090023002A00D07FE0FFF715FF0300E9
:1013A0007BE0262800D1B7E021D8232800D1A0E097
:1013B0000ED8212800D18EE0222800D0C9E06C4B45
:1013C0009A78D2090023002A67D1FA235B0264E0ED
:1013D000242800D198E0252800D0BAE0624B1B6C8D
:1013E0005B07DB0F00D089E08020400058E029280F
:1013F00000D1A1E009D8272800D195E0282800D005
:10140000A7E0FFF7C3FE430847E02A2800D197E092
:101410002B2800D09DE0574B1A68002392003CD542
:10142000FFF7B4FE030038E04F4BDA689201920FE9
:101430000023022A31D892004C4BD3582DE04A4B5E
:10144000DA689200920F0023022A26D89200474BB6
:10145000D35822E0444BDA68920F0023022A1CD8AA
:101460009200424BD35818E03F4BDA681203920FB8
:101470000023022A11D892003C4BD3580DE03A4B7E
:10148000DA689202920F0023022A06D89200374BA4
:10149000D35802E0FFF7BEFE03000020002B5BD014
:1014A000002C00D0236010BDFFF748FE0300F4E7D6
:1014B0002F4B9A78D2090023002AEED12A4B1869C3
:1014C00002230340E9D0284B186901230340E4D0EC
:1014D000FA239B00E1E7264B9A78D2090023002AE1
:1014E000DBD1214B186902230340D6D0FA23DB015C
:1014F000D3E71D4B1B6CDB06DB0F32D00120FFF75F
:101500002BFD03000020C9E7174B1B6C1B07DB0FEB
:10151000F4D180204000C3E7134B1B6C9B07DB0F0B
:10152000ECD180204000BBE70F4B186C0123034037
:10153000E4D180204000B3E7FFF74CFD0300ACE7A7
:10154000FFF724FE03000B4A12689200A5D543085A
:10155000A3E704200023A1E70428A1D080204000B5
:101560009EE7802040009BE700800440C4200020CC
:1015700000D007400060074030B583B000230193DE
:1015800042003D4BD35A9B003C4A944663441C683E
:101590002407E40F1A6807251540A5421ED31A68D0
:1015A00052001BD51B685B015B0F022B19D008D9B9
:1015B000032B1BD0062B1ED10720FFF747FD019000
:1015C00005E0012B17D10620FFF740FD0190691CB3
:1015D0000198FEF73FFF013460430190019803B08A
:1015E00030BD0420FFF732FD0190F0E70520FFF742
:1015F0002DFD0190EBE7462824D00CD948282DD0AA
:1016000026D3492830D04A2834D101A91C20FFF71D
:101610006FFE0025DBE7442808D00DD8432829D1E8
:1016200001A91520FFF764FE0025D0E701A91620C7
:10163000FFF75EFE0025CAE701A91720FFF758FE55
:101640000025C4E701A91820FFF752FE0025BEE7D8
:1016500001A91920FFF74CFE0025B8E701A91A20BF
:10166000FFF746FE0025B2E701A91B20FFF740FE69
:101670000025ACE70025AAE7945000000050064082
:10168000F0B5DE4657464E464546E0B5ABB0041EC3
:1016900023D0061E00D1F1E0CC4B1B691B011B0FB0
:1016A000032B00D1B6E0FFF73FFA002800D1A9E0F4
:1016B00003A80323C37000228270013242700370BA
:1016C000FFF72CFC051E00D1A4E028002BB03CBC89
:1016D00090469946A246AB46F0BD04AB0122DA70B3
:1016E000002119715A7199711A705A709A709A730F
:1016F0001A735973D9711A725A7230201A54D962F6
:101700005A77B3481861197519775A759975023463
:10171000DC751A765A7628201A540838195407307E
:101720001954063819540C2501301D540130195430
:1017300001301A5401301A5410301A5432382835F6
:1017400058550F355A550A3D5855013D5955013DDB
:101750005A55013D5A5507355C553A341A55013CE6
:101760001955013C1855373D07341D55013C195595
:10177000013C1A55013C1855964C8D301C502924BB
:1017800004381C5048381A54013019540130195487
:101790000130195401301A5404301A5401381A54C3
:1017A000013819540138195437301A5401301A5479
:1017B00001301A5401301A5401301A5401301A54AD
:1017C00006301A543B381A5459659965D9650CA9E5
:1017D00000221A6604339942FBD104AC012286230D
:1017E000E2540133E25400238821635401316354ED
:1017F000013163540A316254013162549532A35469
:10180000260049E700210130FFF7A0F9051E00D0AE
:101810005BE74DE7E0783100FFF724F9051E00D1C2
:10182000EEE0FFF757F8022800D11CE1032800D1B1
:101830001CE1012800D1FBE0002D00D045E700228B
:10184000654B1A603023E35C002B02D0624BE26AE6
:101850001A603523E35C002B0BD05C490B6A5F4AAE
:101860001A403423E35C1B06F020000503401343B9
:101870000B624323E35C002B00D047E14423E35C8D
:10188000002B1BD0210044314A788878C978544D08
:101890006E68544B1E406E606D68534B1D40531E66
:1018A0009A41D2020001FF2303400902E020C00058
:1018B00001400B432B431343494A536023004433F5
:1018C0001B79002B18D02200443293795079444977
:1018D00009693F26B143167A3143D279551EAA4190
:1018E00052009D000C232B400B430001302101408E
:1018F0000B4313433A4A1361230080331B78002BB8
:1019000045D0374B1A6C01218A43110022008132E5
:1019100012780A431A641B6C02229343220082321B
:101920001278511E8A41520013432D4A1364136CDE
:1019300004229343220083321278511E8A4192007E
:101940001343274A1364136C082293432200843202
:101950001278511E8A41D2001343214A1364136C3A
:1019600010229343220085321278511E8A411201BF
:1019700013431B4A1364136A1C4A134022008B3220
:101980001278511E8A4192061343154A13622300AE
:1019900044331B7B002B00D1FFE0154B626D1A60B6
:1019A000A26D5A60E26D9A602000603001220C4EF8
:1019B000104B9B46C0231B039A460F4B9946C023EE
:1019C0009B0298460D4B9C46C9E0C046004006402D
:1019D00000127A00C0000020C0200020FFFFFFF0AE
:1019E00000800440FFF7FFFF0FF0FFFFFFFFFFFB4A
:1019F000C4200020FFFFF3FFFFFFFCFFFFFFCFFF2E
:101A000021001031607FFEF787FF051E00D008E738
:101A1000210020312823E05CFFF712F90500FEF7D2
:101A200059FF02281FD0032820D00026012801D109
:101A300026003636002D00D0FEE6F378032B18D0B2
:101A400003A8C370B37883707378437033780370DE
:101A5000FFF764FA051E00D0EEE6E11DA07BFFF75C
:101A600075F80500E8E626003A36E3E726003E363C
:101A7000E0E72533E35C002B1DD1637F002B2AD1E7
:101A8000E378002B36D10125002D00D0D4E6E11DEE
:101A9000A07BFFF75BF8051E00D0CDE603A8F37826
:101AA000C370B37883707378437033780370FFF733
:101AB00035FA0500C0E603A80623C370043B837013
:101AC000013B43700370FFF729FA0500637F002B89
:101AD0000BD00128D8D103A80123C3700022827043
:101AE00043700370FFF71AFA0500E378002BCBD0A0
:101AF000012DC9D103A80223C37000238370437052
:101B000001330370FFF70AFA0500BDE72100363103
:101B10000120FFF719F9051E00D0D6E521003A3162
:101B20000220FFF711F9051E00D0CEE521003E315D
:101B30000320FFF709F9051E00D0C6E59EE6012F38
:101B400000D1BEE000D9C4E077490D401B06C0219A
:101B500089040B402B43F36004300132D2B2036896
:101B6000F568511E042A00D1BBE0CFB2032FE6D99D
:101B7000CFB2052F00D1C0E000D2B7E0062F00D1D0
:101B8000C2E0072F00D0C7E0684A15409B05C0227D
:101B9000120413401D43664BDD60230086331B781F
:101BA000002B24D0624A936E0020906653686149EE
:101BB0001940230088331B781B0380256D012B40BF
:101BC0000B4353609066230087331B78002B0ED0A5
:101BD000230089331A7852000E23134022008A32E0
:101BE0001178802252050A431343514A9366230019
:101BF0008C3346D023008C335B68002B41D08C2380
:101C0000E358002B3DD000204B4B9B4626008C36E2
:101C10004A4B9A46E023DB04994608239846013B49
:101C200001938100091873685B5C5B005A469B5AFC
:101C30009B00434A944663441A6855462A401A60FA
:101C400073689C4661440A788B781B064D461D409C
:101C5000CB78DB0047463B402B430D79019F3D404D
:101C60002B4349784D1EA94189070B435200324945
:101C7000525A92003249535001308C23E358984213
:101C8000CFD39423E35C0025002B00D11DE52D4923
:101C90008B787F2213409434627801204240D20135
:101CA0001343DBB28B700222A256002A39DB25488F
:101CB00001791F2313401F2291430B430371002519
:101CC00003E521490D409B06C02109050B402B432C
:101CD00041E71E490D401B07C02189050B402B43DE
:101CE00039E7AD00AD089B072B4334E749460D406B
:101CF0001B0441460B402B432DE759460D409B04E6
:101D000051460B402B4326E761460D401B05C02181
:101D100089030B402B431EE7F560072A00D81BE719
:101D20003BE7203252B2C2E7FFFFFFFCFFFF3FFF5D
:101D300000800440FFEFFFFF94500000FFFFFFBF53
:101D40000050064000D00740FFFFFFF3FFFFFFCF2A
:101D500070B504000D00112807D92B2800D898E091
:101D600004205A2C00D897E070BD08285BD011D908
:101D70000D286FD029D80A285ED058D30B2862D0FE
:101D80000C2800D082E000210520FFF75FF9030056
:101D9000002016E0032832D00BD9052839D033D3E0
:101DA00006283BD0072871D1FEF72AFF0300002048
:101DB00007E0012817D01CD80020FFF7CDF803005A
:101DC0000020002DD0D02B60CEE70F2850D048D374
:101DD000102854D0112859D101210720FFF736F9D6
:101DE00003000020EDE70120FFF7B6F80300002014
:101DF000E7E70220FFF7B0F803000020E1E7FFF774
:101E000009FA03000020DCE7FEF718FE03000020BB
:101E1000D7E7FEF789FE03000020D2E7FEF76EFD4C
:101E200003000020CDE74D4B1B680020C9E7FFF7FA
:101E3000E9F803000020C4E700210420FFF706F9B9
:101E400003000020BDE701210420FFF7FFF8030095
:101E50000020B6E701210520FFF7F8F80300002075
:101E6000AFE700210620FFF7F1F803000020A8E704
:101E700001210620FFF7EAF803000020A1E7002176
:101E80000720FFF7E3F8030000209AE7002304206F
:101E900097E7FFF72DFA67E72C2C05D80022002DD5
:101EA00000D161E72A605FE72300393BDBB2122BE8
:101EB00003D82B4ADA40D307F0D45A2C37D063002A
:101EC000284A9B5A9B00284A9B585B0031D48020AB
:101ED0004000E3E70120FFF73FF8021E33D1002264
:101EE00080204000DBE70020FFF736F8021EF6D026
:101EF00029E00220FFF730F8021EF0D023E033077C
:101F000005D4F3060AD4002280204000C7E7002150
:101F10002000FFF731FB0200F30604D50121200069
:101F2000FFF72AFB0200504250410002B7E70420AD
:101F3000B4E70E4B1E5DB306CCD47306D3D473B294
:101F40000022002BD5DB18233342D8D10020592C96
:101F5000A5D1FFF73FF802000020A0E7C020002035
:101F60004101040094500000005006404852000017
:101F700010B5FFF7EDFE10BD10B5094B1B688200D0
:101F8000D2580F231840074B1877D877002A06D06D
:101F90005368002B03D0117BC9B29068984710BDDD
:101FA000D42000200080004070B505000F240440BC
:101FB000002221000B4800F029F80B4B1B68AD00F4
:101FC000EB58002B0CD0074A1477D4779477012272
:101FD0001A735A68002A03D0197BC9B298689047CF
:101FE00070BDC04600800040D420002010B50F21F5
:101FF00001400022024800F009F8002010BDC04650
:10200000008000400048704700800040002A01D155
:1020100081767047C176FCE710B50020FFF7ACFF72
:1020200010BD10B50120FFF7A7FF10BD10B50220AD
:10203000FFF7A2FF10BD10B50320FFF79DFF10BDF5
:1020400070B50020FFF7DEFFC56A0024012604E01A
:102050006D080134E4B2102C05D02E42F8D02000D7
:10206000FFF7A2FFF4E770BD03680B6043684B60A5
:1020700083688B60C3680B6103698B61394BDB6CD0
:102080001B041B0F072B4BD0DAB2072A11D90B2BDD
:1020900052D0DAB20B2A27D90D2B55D0DAB20D2A3D
:1020A0004ED30E2B54D00F2B56D180231B03CB6065
:1020B0000AE0032B28D0032A0AD8012B1CD0012ABE
:1020C0001ED880231B03CB6000234B610020704788
:1020D000052B1DD0DBB2052B1ED8E023DB02CB6025
:1020E00080235B014B61F1E7092B1DD0092A1FD822
:1020F00001235B42CB60E7E701235B42CB60E3E770
:1021000001235B42CB60DFE701235B42CB60DBE76F
:1021100001235B42CB60D7E701235B42CB60D3E76F
:1021200001235B42CB60CFE701235B42CB60CBE76F
:1021300001235B42CB60C7E701235B42CB60C3E76F
:1021400001235B42CB60BFE701235B42CB60BBE76F
:1021500001235B42CB60B7E7034BCA689A42BFD901
:10216000B2E7C04600800440FFFF070070B50C00D6
:102170001D00194B1B785BB20221002B01DB08000C
:1021800070BD154B6E3119701131D9719C71552C80
:1021900018D003F049F90100772CF0D10028EED1D6
:1021A000002D17D00C4B9A7A2A70DA7B1202AA8083
:1021B000987B0243AA805A7A12026A801B7A1A43D9
:1021C0006A80DCE7110AD972D2B29A7203F02CF954
:1021D0000100D4E70121D2E700000240F8B506ACC7
:1021E000277807AC26780C4C247864B20225002CA2
:1021F00001DB2800F8BD084C6E3525701035E571FF
:10220000A371677101235E402671E172A27203F02F
:102210000BF90500EDE7C04600000240F0B5CE46E0
:10222000474680B589B00D001600039310AB80CBF4
:102230001B7898468000254BC3589946244BC458B8
:10224000200000F035FE854206D3C020800009B092
:102250000CBC90469946F0BDEB0099444B465B7927
:102260000220002BF3D11F2D04D81F222A40013356
:102270009340236302234A4653714B4642469A7168
:10228000F37A4A46D37104AB7268069232781A71B7
:10229000327A1A73727A5A73B27A9A73F37A002B7B
:1022A00010D01C230493002301930097039B04AADE
:1022B0002900200001F002F80028C8D000234A4677
:1022C0005371C4E70C230493EDE7C046D8200020E7
:1022D000A8520000F0B583B00C000092019380007A
:1022E000184BC558184BC658280000F0E1FD844231
:1022F00003D3C020800003B0F0BD2B689B0009D53C
:102300006B6B1B011B0F5B0007339C4202D8C02084
:102310008000F0E7E700F7197B790220002BEAD173
:1023200001337B71009B3B606B461B79BB710122C3
:102330002100280000F068FE0028DCD000237B711B
:10234000D9E7C046A8520000D820002070B506008A
:1023500082002A4BD4581223FF33E35C002B30D089
:102360006379032B15D0256888235B00E05CFFF7B9
:102370003DFE2B689A0202D46A68920C6A601B03C5
:102380001B0F4822AB54AB681BBAAB60EB681BBA9F
:10239000EB60002323606379032B0BD00023637170
:1023A0000133FF33E558002D04D01223FF33E35CE3
:1023B000012B19D0A379002B02D06379002B19D0FF
:1023C00070BD13000E4A9D5800220521280000F020
:1023D0001BFE00220621280000F016FE0022072125
:1023E000280000F011FED4E723000022082130006D
:1023F000A847DFE7201D01F009FCE1E7D820002015
:10240000A852000070B50C0080000A4BC5580A4B5A
:10241000C058002200F0F8FDE4002E19B379002B1B
:1024200002D10023737170BD201D281801F0EEFB4E
:10243000F7E7C046D8200020A852000070B50E0073
:1024400080000F4BC5582C6880235B041C4008D0CB
:10245000002E0AD12B680B4A13402B60002C0AD0A7
:1024600070BD280000F0F4FDF2E72A6880235B02CB
:1024700013432B60F2E7280000F0D8FDF0E7C046D8
:10248000A8520000FFFFFEFFF0B583B00E0015005C
:10249000019380005C4BC7583C6880235B041C4060
:1024A0000AD000923A687F2313409D4200D88FE003
:1024B000C020800003B0F0BD380000F0C9FD0095D9
:1024C0003A687F2313409D4202D81F2D00D881E037
:1024D000380000F0ABFDC0208000EBE7012E00D0FB
:1024E00089E0019BDE00F608009B8822920094465A
:1024F00063449D00EE517EE07B6BDB0D1E2213409A
:1025000007339D4215D83B689B059B0F022B2ED0AD
:10251000032B3FD0012B4CD0019A0021300000F05A
:1025200095FC009B88229200944663449D00E851EC
:1025300061E0002E0BD1019B9E04344B1E40009B9A
:1025400088229200944663449D00EE5153E0012E90
:1025500051D1019BDE00F608009B88229200944630
:1025600063449D00EE5146E0C0208000A2E7019A3E
:102570000221300000F06AFC030E020C13430343F7
:10258000000A1843009B88229200944663449D00F1
:10259000E85130E0019A0321300000F057FC009B25
:1025A00088229200944663449D0001235B42EB51D4
:1025B00021E0019A0121300000F048FC030C18438F
:1025C000009B88229200944663449D00E85112E0EB
:1025D0001F2DC9D83B689B008ED4002E00D07DE70C
:1025E000019B9E04094B1E40009B8822920094464A
:1025F00063449D00EE510020002C00D05AE73800C3
:1026000000F014FD002055E7A85200000000FC1F58
:10261000F0B5DE4657464E464546E0B583B08046A7
:102620000F0016008200BE4BD4582368002B05DB38
:10263000200000F00DFD200000F06CFC6268737A51
:102640005B03802189010B40B6490A401343636054
:10265000200000F045FC200000F0FAFC200000F013
:1026600067FCB14B42469B5C002B2AD02368AF4AE3
:102670001340327A002A00D048E12360236D5B00CA
:102680005B08002213432365C0221201A358A84906
:102690000B40A3502368327A1B05DB0F01209A42BE
:1026A00006D003B03CBC90469946A246AB46F0BD6E
:1026B000636BA0490B40511E8A4112031A436263A7
:1026C00003E0337A0120002BEBD1B379022B06D043
:1026D0002368994A1A4080239B021343236073792D
:1026E000002B00D0C7E03423F35C012B00D1CAE0FB
:1026F0003423F35C002B03D12368904A13402360FA
:10270000F179200000F09EFD3168200000F0B9FF53
:102710000028C6D123681B0500D4C1E0F3683569E1
:1027200072699446B069F2699246216DC90FC90772
:102730002165216D9B061B0C6D01F822920015404E
:102740002B431F25624615402B4340057C4D2840F6
:10275000034352461204F8204003024013430B4344
:102760002365336A726A9146B26A9246F56A326BA1
:10277000019274496058744A104060506258934600
:102780009B02F822D20113404A4652019446FF228E
:1027900091466246484602401343072294465246F9
:1027A0006046024013432D05684A15402B43019AA9
:1027B0001204E025ED022A4013435A4613436350A6
:1027C000B179200000F0EEFCB379032B02D0200099
:1027D00000F02CFC43465B005D4A985E03008033AA
:1027E00001D000F0C9FF43465C005A4BE05E00F0A8
:1027F000C3FF594BE05E00F0BFFF584BE05E0300A3
:10280000803301D000F0B8FF434603335B00534AE6
:10281000985E0300803301D000F0AEFF3B1D994667
:102820001C0000250021200001F003FA00285DD1E2
:102830000022A270231F1A60EB00FB185A710135A9
:102840000834202DEED13423F25C1223FF33FA54E6
:10285000DC3BF25CDB33FA54002380225200BB5095
:102860000432BB500432BB500432BB5043469A0082
:102870003B4BD75015E73179200000F091FB002841
:1028800000D130E70DE7236801209B0000D408E762
:1028900023682A4A1A4080231B021343236027E738
:1028A000F368994630697569B3699C46F3699A463D
:1028B00061682C4B19406160616807234A461340E8
:1028C0006246120613432D04E022D20215402B4328
:1028D000C004E025AD032840034352469205C020C2
:1028E0000004024013430B43636069E7002D0BD0E3
:1028F0000024484601F0A7F9013408239C46E1442E
:10290000AC42F6D10120CCE60120CAE680221201B9
:1029100013432360236D5B005B0880221206B1E63F
:10292000A8520000FFDFFFFFA4520000FFF7FFFFE7
:10293000FF60FFFFFFEFFFFFFFFFFDFFFF7FFFFFD8
:102940000000E07F040C0000188308C00000F03F86
:10295000D0520000BC520000B4520000C45200002B
:10296000D8200020F8FF0000F0B587B00C00170059
:102970001D008000104BC658300000F04FFC0028AE
:1029800003D0C020800007B0F0BD02AA7B6893602E
:102990003B781371BB7A93733B7A13737B7A5373CF
:1029A000082302930023019300932B0021003000A1
:1029B00000F084FCE7E7C046A8520000F0B585B0FF
:1029C00005000C0003921F0082000E4BD658300009
:1029D00000F024FC002803D0C020800005B0F0BD2A
:1029E000002301930A9B00933B00039A21002800D7
:1029F000FFF714FC0028F1D101222100300000F083
:102A000003FBEBE7A8520000F0B585B00C001700FF
:102A10001D0080001D4BC658300000F0FFFB002851
:102A200003D0C020800005B0F0BD7B6802933B78E6
:102A30006A4613713B7A13731F23234001279F407B
:102A40001F2C00D837630F2300932B006A46210008
:102A5000300000F037FD0028E5D1002300932B0063
:102A60006A462100300000F02DFD0028DBD1042350
:102A700000932B006A462100300000F023FD00285F
:102A8000D1D11F2CCFD83763CDE7C046A852000064
:102A900070B504000D0016008200084BD05800F0FD
:102AA000BDFB002802D0C020800070BD0023320092
:102AB00029002000FFF70EFCF7E7C046A8520000EF
:102AC00010B58300074A9C58074A9A5884235B0034
:102AD000D358002B01D00A219847200000F00AFBB0
:102AE00010BDC046A8520000D8200020F8B505004F
:102AF0008200184BD45823685B0429D51300164A6A
:102B00009E58164BE3589B030ED5144AA1588023B8
:102B10009B020B43A35080235B00F758002F03D088
:102B2000330000220521B8470C4BE358DB030FD5D7
:102B30000A4AA15880235B020B43A35080235B0009
:102B4000F458002C04D03300002206212800A047AE
:102B5000F8BDC046A8520000D8200020080B000095
:102B6000F0B5CE46474680B595B0060082009D4B35
:102B7000D558AA6A2B6B1A40012313400024012266
:102B80001F201A420BD10134202C00D10FE1A96A79
:102B90002B6B0B4001002140CB401340F1E7002B91
:102BA00000D104E1B300904A9F582B689B0001D5E7
:102BB000072C2AD9E3009846B84443465B79012B99
:102BC00000D190E0E300FB185B79022B38D01F2C7A
:102BD00000D9F9E0A96A2B6B1F2222400B40D34099
:102BE000DB0700D4F0E02B689B0000D4D4E0072C76
:102BF00000D9D1E07B79002B00D0E5E01F2C00D973
:102C0000E2E0013393402B63DEE0052C10D0062C6C
:102C10005CD0072CD6D180232B638033FB58984699
:102C2000002B08D03B00002203213000C04702E007
:102C30007B79012B2AD0E300FB185B79022BC9D1E9
:102C4000E3009846B8444346DB79002B00D08AE085
:102C50001F2C04D81F222240012393402B63002302
:102C6000424653710133FF33FB589946002B04D081
:102C70003B00220004213000C84743465B79002B0B
:102C8000A5D121003000FFF7BDFBA0E7396828007F
:102C900000F03AFA20232B6300237B710133FF33CA
:102CA000FB589846002B04D03B0000220121300045
:102CB000C0477B79002B05D0E300FB185B79022B22
:102CC00088D1BDE73000FFF741FBF5E740232B63D8
:102CD000C033FB589846002BADD03B0000220221A8
:102CE0003000C047A7E72100280000F055FC43460C
:102CF0001A682100280000F054FC1F2C04D81F2261
:102D00002240012393402B632B689B0004D543464C
:102D10001B68DB781B0718D0AB6800234246537151
:102D20000133FF33FB589946002B04D03B002200AF
:102D300000213000C84743465B79002B00D041E7B3
:102D400021003000FFF75EFB3CE72100280000F087
:102D500097FA0368254A1340036002688023DB0466
:102D600013430360D9E72100280000F015FC01AAF5
:102D70002100280000F015FCAB68019B1B011B0F14
:102D8000042B00D06BE71F2C00D968E71F222240DC
:102D9000033B93402B6362E7E300FF187B79002B32
:102DA00012D11F2C10D8013393402B630CE0002E5E
:102DB00007D10F4BEA58EB581B0C520C1343DB079F
:102DC00007D4EB69002B08D115B00CBC904699468E
:102DD000F0BD0020FFF78AFEF3E73000FFF770FE3A
:102DE000F2E7C046A8520000D8200020FFFFFFF005
:102DF000080B00008000044BC3588020400019508D
:102E0000822149005A507047D8200020030008282A
:102E10000AD90C2816D009D80A2811D014230A2858
:102E200002D8083B092809D1180070470E280BD09A
:102E300020230E28F8D320330F28F5D00023F3E702
:102E40001023F1E71823EFE73023EDE70300012912
:102E500014D0002903D0022920D000207047900F01
:102E60008007002B05D0012BF8D1D2009208104327
:102E7000F4E7D2040C4B1A401043EFE7900F8007A1
:102E8000002B06D0012BE9D11204084B1A40104345
:102E9000E4E7D204044B1A401043DFE70020012B83
:102EA000DCD81006DAE7C0460000F83F0000FF3F1C
:102EB000084B984208D0084B984207D00023074A95
:102EC000904205D0180070472023F8E72023F9E747
:102ED0002023F7E7004002400050024000B00240CB
:102EE0000368DB0210D503685B005B0803600368BE
:102EF000064A134003600368054A134003608022BA
:102F0000120503681342FCD17047C046FFFFFFBFA4
:102F1000FFFFFFEF0368002B09DB026880231B061D
:102F2000134303608022520303681342FCD07047AE
:102F300070B50400026880239B0413430360802261
:102F4000920423681342FCD1226880235B0113435F
:102F500023602000FFF7ACFF860021008031002EA7
:102F600006D00B00B2008918002520C38B42FCD18B
:102F700088231B01E218002805D0130092190021B4
:102F800002C39A42FCD101235B4223616361A361C6
:102F90000022A2622363014B236270BD06003B0046
:102FA00070B504000D00FFF783FF01002368802245
:102FB000120113401800421E904180B2002B1DD117
:102FC000226880239B0513432360636B2D06F02248
:102FD000120515400A4A13401D43656301235B42F5
:102FE000A3640904090C09D00023064D882292002D
:102FF0009A189200155101338B42F7D170BDC0462B
:10300000FFFFFFF0FFFFFF1F1F2908D81F231940F4
:103010001E3B8B40002A04D1826A9A4382620020C0
:103020007047826A13438362F9E700000368064A27
:10303000134003600368054A134003608022520472
:1030400003681342FCD17047FFFFFFEFFFFFFFBF94
:1030500030B502688023DB051343036002688023D8
:103060005B051343036003680125002B11DB00237C
:10307000836003681B0512D50368DB011AD4802125
:1030800049041B4C826803680B4213D1A242F9D950
:1030900010E003685B005B0803600025E7E7036856
:1030A000DB0107D480214904826803680B4201D107
:1030B000B32AF9D90368DB010DD4846A0168026878
:1030C00080239B041343036080229204036813420D
:1030D000FCD184620160002D09D1026880231B06A7
:1030E000134303608022520303681342FCD030BDB7
:1030F000D9020000026A034B1A4201D00362036A3C
:103100007047C04606003B00F0B5C64600B582B029
:1031100007000C00060088360D000835802398460D
:10312000C0580003000FFFF771FE4823E0544346E8
:10313000FB5823609B0214D58423FB586360AB07C4
:1031400014D10022002808D093089B00F1180968C8
:1031500009BAE95004328242F6D302B004BC904668
:10316000F0BD8423FB589B0C6360E8E70028F4D093
:10317000013803239843071D002101AD02E004310B
:103180008F42EAD08B089B00F3181B681BBA01938F
:1031900000235A18A218585D10720133042BF8D17D
:1031A000EDE7000010B5022923D008D8002913D07C
:1031B000012910D143680822134343600BE003291F
:1031C00007D0042907D1026880231B06134303603C
:1031D00001E0FFF73DFF10BD03680D4A1340036097
:1031E000436808229343436043680A4A134043609C
:1031F000F1E7426880235B01134343604368082280
:10320000934343600368044A13400360E3E7C04606
:10321000FFFF7FFFFFEFFFFFFFFFFDFF03687F2240
:103220001A4001238A420BD302680023920007D57B
:10323000426B1201120F520007328A425B41DBB22D
:103240001800704710B503681B0507D5C02212018E
:103250008358034C234009041943815010BDC046D4
:10326000FFFFFCFF02680823120507D5C0231B01DE
:10327000C2589203920F033201239340D8B2704791
:10328000F8B505000F00FFF7EDFF0830C4B22100CC
:1032900080208000FDF7DEF8FF2606403100380070
:1032A000FDF75EF9A4084C4331003800FDF7D2F871
:1032B000C0012018203080002818F8BDF0B5D6468F
:1032C0004F464646C0B582B006000D00140000937C
:1032D0000AAB80CB1B789946FFF7D2FF8046326855
:1032E0007F2313409D4200D9DDE033689B000DD55C
:1032F000736B1B011B0F5B0007339D4206D8C02078
:103300008000AEE0736BC0208000AAE033681B052C
:1033100009D5A37B002B06D0C0221201B15880230F
:103320001B060B43B350A668F3B2FF20402B03D813
:10333000FF2333405F4AD05C8246002F4DD0454684
:103340000835FFF763FD0190BB0711D103239E43AE
:10335000331E29D0002303219A089200AE18BA58D0
:1033600012BA32600433A2688A439342F4D31BE05A
:1033700003239E43331E17D0390000230326CA7847
:103380001206887800040243087802434878000255
:10339000024398088000281812BA026004330431EE
:1033A000A268B2439342EAD3A2680321934208D2AF
:1033B0001A004A40AA18FE5C16700133A2689A42AD
:1033C000F6D80198824208D2032713007B40EB18FD
:1033D000617B197001328242F7D3002342461360A9
:1033E000536023790022012B41D02379002B0ED189
:1033F00043465B68304A1340424653605368009A24
:1034000096042E4A16401E4343465E6000225346F1
:103410001B04F02109030B40134322680F2A40D0FC
:103420001C2A34D04946002902D0802149030B438D
:1034300023490B40217B00292DD01206F0210905DC
:103440000A40802109060A431343A27B002A02D0C6
:103450008022D2051343424612681343424613604A
:10346000002002B01CBC90469946A246F0BD4346DF
:103470005B685B0F5B07424653605268009BDB0052
:10348000DB0813434246536080229203ADE780215C
:1034900049030B43CCE71206F02109050A40134308
:1034A000D3E70020DDE733689B0000D52AE7C02082
:1034B0008000D6E7D8520000FFFF03E00000FC1FA9
:1034C000FFFFFFF0F8B504000E0017001D00FFF726
:1034D000D7FE22687F2313409E423FD823689B007B
:1034E00046D40023036043603B79012B21D03B7914
:1034F000002B0DD10368234A134003604368224A1E
:10350000134043604368AD04204A15401D434560A5
:103510003B680F2B20D003681D4A134003600268EC
:103520003B681B06F02109050B4013430360002094
:103530001AE0026880239B03134303600368154A63
:103540001340036043685B0F5B0743604268EB0016
:10355000DB0813434360CAE7002005E023689B00B3
:1035600003D5636BC0208000F8BDC0208000FBE75E
:10357000636B1B011B0F5B0007339E42B1D8C02059
:103580008000F1E7FFFF9FFFFFFF03E00000FC1F4B
:10359000FFFFFFF0FFFFBFFF10B5FFF771FE0368ED
:1035A00010BDF0B5C64600B584B016000190FFF717
:1035B00067FE0500082398468044370008370068F6
:1035C0000003000FFFF722FC04000198FFF74AFEFA
:1035D000844230D84823F4542B6833609B022FD5A3
:1035E0006B687360BB072FD1032320009843002131
:1035F00000280AD08B089B004246D218126812BAE3
:10360000FA500431C9B28142F4D38C420FD90A0076
:103610000832B21803200B004340DBB20833EB182A
:103620001B7813700131C9B201328C42F3D104B05E
:1036300004BC9046F0BD0198FFF714FE0400C9E7F2
:103640006B689B0C7360CDE7032322009A4394467A
:1036500015D0002103A803E00431C9B26145D4D2DA
:103660008B089B0043441B681BBA03930023CA18B2
:10367000B2181F5C17720133042BF8D1ECE700215C
:10368000C3E7F8B5CE46474680B506000F00FFF702
:10369000E9FD04007D1E29003000FFF7F1FDA04682
:1036A00000190830A0239B00F218904205D9C020D1
:1036B00080000CBC90469946F8BD3000FFF7F8FB3F
:1036C000874204D9C0208000F3E70020F1E7316889
:1036D0007F2399431D4029433160316880239B0536
:1036E00019401CD1002FF0D00025002408234344AA
:1036F00099463000FFF7C4FD046044604346002B48
:1037000006D00300083348441C7001339842FBD1B3
:103710000135EDB22900AF42EBD80020C9E7002007
:10372000C7E710B50020FFF71BFA10BD10B5002049
:10373000FFF716FA10BD000010B50B4C0B4B9C4266
:103740000CD0002A05D0030010339B00064CE35830
:10375000136010308000044B195010BD044C054B11
:103760009C42FAD1EDE7C0460000002000000000B6
:10377000405400009856000043091F2210401E3A92
:1037800082409B0001495A507047C04600E100E06A
:10379000054B1B68002B04DD013B034A1360002B23
:1037A00000DD704762B6FCE7E420002072B6024AF2
:1037B0001368013313607047E420002000B583B024
:1037C000022808D003280FD001280BD001A90B2014
:1037D000FEF7CEFB03E01E2001A9FEF7C9FB01980E
:1037E00003B000BD2020F7E75520F5E7F0B5DE4631
:1037F00057464E464546E0B583B00E008B689A4664
:10380000CF784B7998468B799946002F64D05346F0
:103810006A4613801488724D280000F005F92B6861
:10382000704A13403278511E8A41120213432B60B2
:103830002B68C02293437278511E8A419201134330
:103840002B602A6884239A43B378591E8B419B00CE
:103850001A432A602A6882218A43790002270F408E
:1038600017432F606868782290434146C9000A4098
:1038700002436A606A6804239A434B46591E8B418F
:103880009B001A436A606A6803218A4311003079F9
:10389000032202400A436A60A868000C0004204327
:1038A000A8602A68B0218A431100707B0001302291
:1038B00002400A432A602A6888218A431100B07BAB
:1038C000C000082202400A432A6003B03CBC904674
:1038D0009946A246AB46F0BD0B7B9B460B79010097
:1038E0001800FFF76BFF5B46012B04D053466A4676
:1038F000138014888FE70200002350460021FCF754
:1039000055FE394A002380185941384A0023FCF7F4
:103910002DFE009001910B1E0BD0012399461F3301
:103920009B461F3B9A46B84632004E4691461F00C2
:103930002AE0002B03D180235B029842EDD8009B44
:10394000019C18002100002398460143002400290F
:1039500032D0013884B22FE05B469B1B5246DA40DE
:103960001300D9075246B24054080C435D08009832
:10397000019900196941FCF7F9FD00290CD00137C4
:10398000FFB20136112F12D020235B42F318E3D48B
:1039900052469A401300E4E700291BD180235B02C2
:1039A0009842ECD83B0047464E469846CDE73B0050
:1039B00047464E4698460E4C4346002B05D0013BE9
:1039C000DBB298460023994625E701239946002358
:1039D000984620E73B0047464E469846B5E7C04626
:1039E000000004407FFEFFFF20A1070040420F00BF
:1039F000FFFF000010B51400FFF7F8FE002C06D002
:103A0000034A136881218B4380390B43136010BD37
:103A100000000440034A136881218B4380390B4323
:103A200013607047000004400368812293430360E1
:103A30000023036043608360704770B5061E08D0A2
:103A40000C000025200000F043F801351834AE4288
:103A5000F8D1002070BD81607047000010B50300F0
:103A60001948834204D0194CFF20A3421ED010BD38
:103A70000D2912D007D90F2915D011D3102921D122
:103A80000D201040F3E7002904D001291AD10220AB
:103A90001043ECE701201043E9E704201043E6E778
:103AA00008201043E3E70E201040E0E7002903D090
:103AB000012904D0FF20DAE70B201040D7E70720C8
:103AC0001040D4E7FF20D2E700A0044000B004403B
:103AD00070B50400006861688B001B58227A012AC7
:103AE00046D0002A41D0022A47D010229343657A5B
:103AF0002D012A401A4340239A43A57AAD012B4059
:103B00001343394D1D40E37A082B39D01B02E022C4
:103B1000D20013402B43354A1340227BD207120CAC
:103B20001343334A1A40637B1B04F02109030B4003
:103B30001343A27B002A04D02E4A13408022520451
:103B4000134362689200216853502168C0254B5985
:103B500060680122824093431A00E37B8340134351
:103B60004B51E37A012B20D070BD02229343BCE776
:103B70000122934301321343B7E703221343B4E70F
:103B80001D4B5B680F221A40FFF768FFFF280AD021
:103B9000194A51680F2399435160516803400B4300
:103BA00053600023B2E70023B0E721694B69227D0F
:103BB000002A03D0012A08D004D10AE0012261685A
:103BC0008A40934322695361CEE7012260688240B4
:103BD000134365680A680120A84082431000627D93
:103BE000AA4002430A60EDE7FFF8FFFFFF7FFFFFF7
:103BF000FFFFF0FFFFFFFFFE00800440024A136852
:103C0000013313607047C046E820002010B504005F
:103C1000FFF7CCFD2378DBB2FF2B08D023780133EC
:103C2000DBB223700024FFF7B3FD200010BD012498
:103C3000F9E770B504000D00FFF7B8FD2570FFF738
:103C4000A7FD002070BD00207047000010B5084897
:103C5000FDF716FD07490220FFF7EFFE00F020F800
:103C600000F0C6F800F082F801F0ECF910BDC04693
:103C700090010020D002002010B5002903D1064B8E
:103C80005B7B002B00D010BD034B197B034A002047
:103C9000FEF7FEFEF7E7C0460003002000220020EA
:103CA00030B585B0802189031948FFF7D4FE194A41
:103CB00019490020FEF7ACFC01210020FEF7BEFBF5
:103CC0000C22002101A801F0DDF908230293134B17
:103CD0005B7B002B06D0002211490020FFF78AF8F9
:103CE00005B030BD0D4C217801AD2970227BA36851
:103CF0000020FEF7C9FB217B63682A000020FEF745
:103D000083FE217B074A0020FEF7C2FEE3E7C046A0
:103D100000F00F4098020020EC200020000300205B
:103D2000793C000000220020F0B589B00390029198
:103D300017001D000EAB1E7805AC0C2200212000E0
:103D400001F0A0F9267065606B461D7B029B220086
:103D500029000020FEF708FE0097029B22002900A0
:103D60000020FEF72BFE09B0F0BD000010B582B0B8
:103D70000F4C21000F48FEF777F96369002B01D043
:103D800002B010BD0A4C01330193002300930322BB
:103D900003212000FEF722FA21000648FEF764F90D
:103DA0000023002200212000FEF7E0F9E8E7C046EA
:103DB0004C2200201C53000010B50A4B1A68501CFE
:103DC0001860094A1368013313600521FCF7C8FB2A
:103DD000002905D10122054B1A700022014B1A60FF
:103DE00010BDC04668220020B02700206C220020B1
:103DF00010B5002207490020FFF7FCFD002206490C
:103E00003A20FFF799FC3A20FFF7B6FC0020FFF7B5
:103E100001FE10BD30530000B93D000070B5FFF742
:103E200015FF054E350000243378002BFDD02C7093
:103E300001F014F9F8E7C0466C2200207047704783
:103E4000F0B5154A154B1360154B16491960164904
:103E50005160164A5A6000220F481F00FF260024B6
:103E600000239C4600211358D559DD60DE8013588D
:103E70001C6013589C80135865465D75D97519757B
:103E8000D97499749975597419740432082AEAD14D
:103E9000074A084B1A60F0BDAC24002070220020B5
:103EA000A0220020AC22002088220020AC23002089
:103EB00058530000C4240020014B18607047C046CE
:103EC000A822002070B50400002A14D0072A0CD8BC
:103ED000DA23D340DB0708D5C2000C4BD358DA688D
:103EE0000B4B1D680B000221A847E400074BE35869
:103EF00000225A7470BDC300044A9B58DA68044B10
:103F00001D680B000121A847EFE7C046AC24002044
:103F1000A822002070B50400002917D008290ED867
:103F200093235B00CB40DB0709D5C2000D4B9B18E8
:103F30005A68D388D2680C490D680421A847E40068
:103F4000084B1C19636800225A7470BDC200054BEF
:103F50009B185A68D388D26803490D680321A84783
:103F6000EDE7C046AC240020A8220020F0B5C646EC
:103F700000B58AB0D54B1B68002B00D1F0E106AB31
:103F800008A900225A7101339942FBD1D04B1D6818
:103F9000D04C270008370D2604AB9C466644C8E188
:103FA000042A00D10EE1052A00D0BFE11A7D2021AC
:103FB0000A4332700136C54A12689268069201219E
:103FC00006AA117119899A88D01D814200DD4FE13E
:103FD000891AC9B28846DB689A18300001F048F89F
:103FE00006AA137943441371B84B1A68537D002B0A
:103FF00002D0082106AB1971B54D2868039B1968DA
:10400000D3681B681B180B60B34B5888099A04923D
:1040100000920699079A089B00F05AFF2D68039BAF
:104020001A6813685B1B002B00DC1CE1012800D11F
:104030000BE1052800D112E1039B1B68DA7D002A01
:1040400000D173E15A7D002A00D06FE101325A7429
:104050009F4A15689D4A1268D268526852191A60C0
:1040600064E11A7C012A38D030223270974A1268F3
:10407000032006A9087191680691517D002902D09C
:10408000053006A90871D168097B7170B11C0491D3
:10409000D168497BB1708E490968D268126852189C
:1040A0001A608D4B5888099B059300930699079ACF
:1040B000089B00F00DFF864B1D68039B1B681A6868
:1040C000521B002A77DD012861D0049E052800D00C
:1040D0002CE100221A745A7428E1303232707B4A83
:1040E0001268D168097B7170B11C0491D168497B59
:1040F000B17091680691032006A90871517D0029CD
:1041000002D0053006A90871714D2968D26812687D
:1041100052181A60704B5888099B059300930699B2
:10412000079A089B00F0D4FE2D68039B1B681A6851
:10413000521B002A25DD012813D005281DD0039B22
:104140001B68624A1268D268D97C927B049E9142B5
:1041500000D2EBE0998807220020FFF7B3FE049E0F
:10416000E4E0DA7C0132DA74594A1568574A126879
:10417000D268526852191A60E1E700221A745A7420
:10418000DDE7998801220020FFF79CFED7E7002297
:10419000DA7402325A744D4A1268D168097B597533
:1041A000D168097BD9754A490D68D268926852195D
:1041B0001A60049EBAE0998801220020FFF782FE6F
:1041C000049EB3E032223270404A1268D168097B03
:1041D0007170B11C8846D168497BB170032006A973
:1041E000087191680691517D002902D0053006A919
:1041F0000871374D2968D268126852181A60364B18
:104200005888099B049300930699079A089B00F02D
:104210005FFE2D68039B1A6813685B1B002B0DDD86
:10422000012807D04646052800D07FE000231374FC
:1042300053747BE000235374464677E09188012253
:104240000020FFF73FFE464670E000210020FFF708
:1042500061FE039B1A68938843449380ECE6002335
:1042600013745374E8E601210020FFF753FEE3E6E0
:10427000DB689A180721300000F0FAFE06AB1A79C5
:1042800007321A71124D2868039A11680F4A126892
:10429000D268126812180A600F4A50880999009172
:1042A0000699079A089B00F013FE2D68039A13687D
:1042B0001A68521B002A30DD01280FD0052800D0D3
:1042C000BAE600221A745A74B6E6C046C424002026
:1042D000B0270020AC24002010030020197D0131FC
:1042E0000F220A401A759A8807329A80039B1A682F
:1042F000D37D002B04D0537D002B01D0013B53759F
:10430000917D0B00F02903D90F23194055334B43FE
:1043100015490D685B1913608EE601210020FFF737
:10432000F9FD89E602210020FFF7F4FD0434BC42C8
:1043300016D0039423685A7C002AF7D01968491BC9
:10434000F4D5032A00D18CE600D929E6012AE9D068
:10435000022AEBD1998803220020FFF7B3FDE5E79D
:104360000AB004BC9046F0BDB027002070B582B002
:1043700005000E00140008220021684600F082FEAD
:10438000AB4B1A68002A01D0082E01D002B070BDD4
:1043900013689D4203D053689D42F7D102E001218A
:1043A000A44B1970A44B1868037C012BEED000239A
:1043B000E15C6D4659550133082BF9D1437C052B3F
:1043C000E4D02C780F2125008D4329000F252C40A7
:1043D000012B30D0102900D191E059D9202900D0EB
:1043E00083E0022BD2D1037DA34200D0EDE0013463
:1043F0000F231C40047583880189DA1D92B28A421A
:1044000000D2E8E08B4210D26A46511C8A4D828865
:10441000C0680C7884540131286882880132828017
:1044200001339BB202899A42F1D881880022002090
:10443000FFF748FDAAE73029A8D17F4B59684B7C8C
:10444000012BA3D1022C00D1A1E07A4B1B78012BC8
:1044500000D1A3E0012C00D1A9E0002C00D0AFE0F6
:10446000764B1B680B60744B5B686A465278DA7552
:104470005A756A46927811008039C9B2702902D9FA
:10448000F92A00D89AE07F229A7505225A747DE7AE
:10449000002900D07AE7621E062A00D976E7002BB1
:1044A00027D1654B1B6800229A80A4B2002C14D03F
:1044B000651EADB202AB9C466544063D6B460133BA
:1044C0005D4802689188D2681C78545401330168B1
:1044D0008A8801328A80AB42F3D1574B1B68998896
:1044E00000220020FFF7EEFC50E7302900D04DE716
:1044F000A3E7818806220020FFF7E4FCD1E74D4ABC
:104500001278012A32D024026A4655782C43072CAF
:1045100000D83BE7002B2DD1474B1B6800229A8027
:104520001C81DA74DA88A2422AD36B4602334248ED
:1045300002689188D2681C785454013301688A88D3
:1045400001328A8002AA9342F2D10B89CA683C499F
:104550000C6805210020A047374B1B6803225A74C2
:10456000023A1A75354A12681A600FE70022314B79
:104570001A700BE7818806220020FFF7A3FCCBE727
:1045800000221A602C4B1B6804325A74FEE600238A
:104590004B7408210020FFF7BDFCF7E60023254AF5
:1045A00013704B7405210020FFF7B4FCEEE6234B9B
:1045B0001868D3685B681B180B60E7E69A7564E7B8
:1045C00005210020FFF7A6FCE0E6818804220020F8
:1045D000FFF778FCDAE66B460133174802689188EA
:1045E000D2681C785454013301688A8801328A8069
:1045F00002AA9342F2D1114B1A680D4B1B68DB687B
:104600009B689B180B600C4B1A68D37D002B00D164
:10461000BCE6537D002B05D0013BDBB25375002B6C
:1046200000D0B3E603235374044B1B681360ADE65C
:10463000C4240020C8240020AC240020B02700207F
:10464000A8220020F0B5C64600B582B00400C00024
:104650004B4B1B185E68737C0020002B6DD1494BBF
:104660001D00083558710133AB42FBD1A300464809
:104670001858002800D181E0F16032810023B38016
:10468000E1003F4B5B185B680021D9755975012526
:104690001D753C490D7185680D60198907290CD875
:1046A000D6B2384B5E71721C1A71437D002B48D014
:1046B00034480823037106300CE032481105090F15
:1046C000102529434171827101225A740823037114
:1046D00006260730E3002A4DED186B68DA683100D2
:1046E00000F0C6FC6A68B6B29388F3189380274B33
:1046F000984618686968A200234BD358DB681B688A
:104700001B180B601F4F63001B195B00204AD31856
:104710005888FB68009339687A68BB6800F0D8FB5A
:1047200043461B686A681168CB1A002B20DD0128FC
:104730000AD0002353741374002002B004BC9046C6
:10474000F0BD10480630C5E71389B3420AD90F4BB4
:104750001968A4000C4BE358DB685B685B181360B6
:104760000120EAE700212000FFF7D4FB0120E4E765
:1047700001212000FFF7CEFB0020DEE70020DCE770
:10478000AC240020B4240020C4240020B027002042
:104790001003002030B583B00C00082200216846C9
:1047A00000F070FC20682179002908D00023E2186D
:1047B00052796D465A550133DAB29142F7D86A46BA
:1047C000FFF7D4FD03B030BD054A064B1360064B1E
:1047D0000649196006495160064A5A607047C0464A
:1047E0000C270020D4260020CC240020D424002034
:1047F000F0260020D425002010B5094A4B001B18D4
:104800009B009C5800232360400040188000825881
:10481000137453749374D37413755375937510BDD7
:104820000C270020F0B5C64600B5FFF7CDFF0021EC
:10483000124D00200022124F124B98464B5918601F
:104840004B5958604B599881D881CC599C601A7447
:104850005A749A74DA741A755A759A7544462468AB
:10486000094EB44664449C6104310829E6D10748E6
:10487000FFF722FB04BC9046F0BDC0460C27002089
:10488000CC240020B027002088130000A54A000097
:1048900010B5494B1B68002B52D0474A5268002A7A
:1048A0004ED05A7C002A17D1DA7C002A03D0062287
:1048B0005A740022DA749A7C002A08D001225A74B1
:1048C0005A7D002A06D1DA7C002A23D107E05A7DDE
:1048D000002A01D000225A755A7C012A17D0364B83
:1048E0005B68DA7D002A23D05A7C052A3FD0042257
:1048F0005A740022DA75DA8999680020FFF7A2FE5F
:1049000000281ED02C4B5B6805225A7431E0DA7CFB
:10491000002A04D006225A740022DA749A745A7D4E
:10492000002ADCD000225A759A745A741A60D6E7AD
:104930005A7C042ADFD0204B5B685A7C052A18D0A9
:1049400010BD1E4A13780133DBB21370052BF2D170
:10495000194B5A68002353741360184A1370EAE71E
:104960000023136001210020FFF746FF12E0124BE5
:104970005B680021114A11701A7D002A0AD00022BA
:104980001A750D4A1268117C0029E9D0002159746A
:1049900006235374084B5B689B7D002BD0D0064BDD
:1049A0001B681A7C002A01D000221A740121002001
:1049B000FFF722FFC4E7C0460C2700201427002081
:1049C00010B50400FFF73AFAE400064BE358012261
:1049D0009A745A7D002A01D000225A75FFF72FFAE7
:1049E00010BDC0460C27002070B504000D00FFF775
:1049F00025FAE2000C4BD3580122DA745A7D002AC2
:104A000001D000225A75FFF71AFA074AE400A158AC
:104A10008D81064B1B68064800684860A2585168A3
:104A20008C466344136070BD0C270020B027002023
:104A30005053000010B50400FFF700FAE4000448EA
:104A40000019436801221A75FFF7F9F910BDC04635
:104A50000C27002010B50400FFF7F0F9E40004482B
:104A60000019436801229A75FFF7E9F910BDC046A5
:104A70000C27002010B50400FFF7E0F9E400084B14
:104A8000E35801225A75DA7C002A01D00022DA7438
:104A90009A7C002A01D000229A74FFF7D0F910BD49
:104AA0000C27002070B504001D0003291CD007D876
:104AB00001290DD0022916D1C0B2FFF7DBFF12E0A9
:104AC000042915D005290ED1C0B2FFF779FF0AE0FD
:104AD0000002001B084BC018290000F0C9FAE0B220
:104AE0002900FFF781FF70BDC0B2FFF7A3FFFAE70F
:104AF000C0B2FFF7AFFFF6E7D424002070B5B04B8B
:104B00001A680121AF4B1970AF4B1B6899698A4233
:104B10000CD3AE4A1278652A02D00121AC4A11703A
:104B2000A74A1268AB498C4662449A61A84B1B782D
:104B3000002B00D03BE10022A24B1A70A24B196857
:104B40004B7C062B00D070BDA34B1B68002B00D103
:104B5000B6E08868A14A10609B4C6468A468546001
:104B600000255581898911819D4A1278002A02D138
:104B700001789C4A11709B4A12781978914200D1B1
:104B8000FAE0197C914215D02021595C91420FD056
:104B9000954B1B78002B0FD17F3323708F4B5968B7
:104BA0004A70112259688A700E3A5A81022407E02D
:104BB0000221E2E00121E0E000228B4B1A70032485
:104BC000814B5B68854A5289DA817F4B5B689B68C1
:104BD0001A787F2A76D07A4B1B687B4A12687D4907
:104BE0008C46634493610022794B1A70631EDBB2DA
:104BF000012B78D9032C00D184E000227A4B1A7063
:104C00006F4B1D68042C00D186E06F4B1B681A683F
:104C1000AA4298D81A7C002A00D0A9E000221A6083
:104C200091E70220022900D0BDE01B7B034219D18D
:104C30007F212170694B586842705A689170032235
:104C40005A81664B5B689B78132B25D0664B1C788A
:104C5000013C62426241941C0022614B1A70AFE732
:104C60000420E2E75D48A84704000228E9D00428B0
:104C700014D0012803D00022594B1A70A0E7574BDB
:104C80001A681278403259680A705A8901325A817A
:104C90000022534B1A7093E70224DDE74F4B7F222B
:104CA00059680A701A68127859684A7078225968E7
:104CB0008A705A8903325A810122494B1A707FE760
:104CC000032482E79B78112B90D07F2B8ED03C4B16
:104CD0001B683D4A12683F498C4663449361002239
:104CE0003B4B1A7082E700210020FFF785FD364B11
:104CF0005B685A7C052A02D004225A747AE70122A2
:104D0000DA7577E700210020FFF776FD0022364BA9
:104D10001A702B4B1D6878E72B4B1B681A7C002AF6
:104D20000FD01A68954200D20DE75A689446654440
:104D30001D60254B002219684A745B6804325A745E
:104D400001E700210020FFF757FD1F490A680123F2
:104D50001374264B5B685360EB1813604B685A7CE6
:104D6000052A02D004225A744FE70122DA754CE773
:104D7000042C00D0E7E6D8E7002109015B189D6804
:104D8000002D12D011490978032900D168E7C8B273
:104D9000032800D845E708205F2900D145E70830FF
:104DA000652900D141E701203FE7032408E70023FC
:104DB000044A13700121054A1170054A1370BDE6BB
:104DC000B02700202D2700200C27002029270020B5
:104DD0002C27002088130000182700201C27002003
:104DE000282700202E270020C82400205053000030
:104DF000074B084A116889681960526892685A60BE
:104E000000221A815A810132034B1A707047C04642
:104E10001C2700200C2700202927002010B5034A5A
:104E2000034B1A60FFF7E4FF10BDC046705300004B
:104E300018270020014B18607047C046302700201B
:104E400030B589B0164C60681840164D2D68401B6F
:104E5000451EA841C0B245016419247A944201D08C
:104E600009B030BD049304AB1971002909D00023A7
:104E700004AAD2180C9CE45C54710133DAB291425A
:104E8000F6D84201064B9B189C69002CE8D080B2F2
:104E9000079B039300930499059A069BA047DFE7BD
:104EA000A05300008027002010B5064B064A116869
:104EB0001960116A5960126C9A600448FFF7BAFFD2
:104EC00010BDC04680270020A0530000414E0000C6
:104ED00084B070B582B00800079108920993D3B2EC
:104EE000164A4821535401005060002B09D007A8EE
:104EF00014000834C6184579257001300134B042D9
:104F0000F9D10F4802006032002402E020308242D2
:104F100004D00568A942F9D1047BF7E70094074A59
:104F200008320020FEF700FF83B258425841C0B259
:104F300002B070BC08BC04B01847C046342700203B
:104F4000A0530000024BDA88024B1A807047C0461B
:104F500010540000A827002030B585B0224B1A88D5
:104F60005201224B9B18DB69214A13609A7C002A6C
:104F700029D06A46180032C832C2110002680A609D
:104F800000229A74184B9B68002B02D069460020BF
:104F900098470022174B1A60174B1888174B9988AF
:104FA000FBF7DEFA89B2002907D1144B9B68002B6E
:104FB00000D098470022104B1A800F4A1388013303
:104FC000138005B030BD0B4A136801331360064AE5
:104FD00052689342E0D9044BDB68002B00D098471D
:104FE0000022044B1A60D7E700540000A0530000D1
:104FF000AC270020A4270020A82700201054000080
:1050000084B030B504910592069343010B48C01853
:10501000C3690B490A8801320A80002B0AD004AA0E
:10502000190031CA31C112680A6001229A741A8AC1
:1050300001321A8230BC08BC04B01847A0530000EB
:10504000A027002010B5FFF72FFFFFF77BFFFEF72B
:10505000F7FEFFF7E7FBFFF7E1FE10BD10B5FFF726
:105060007BFFFEF783FFFFF713FCFFF747FD10BD43
:10507000002906D0411813780370013201308142B3
:10508000F9D1704703008218934200D1704719701C
:105090000133F9E7000000000000000000000000FC
:1050A0000000000000000000000000000000000000
:1050B00000000000000000000000000000000000F0
:1050C00000000000000000000000000000000000E0
:1050D00000000000000000000000000000000000D0
:1050E000000000000000000000000000000073004D
:1050F00032002100610049004A004B004C004D0085
:105100003D00540055000000240025002B0036000F
:1051100031000000200000007900380039003A001A
:1051200026006E006F007000710000003B00270039
:105130005A006600670037002C002D002E0040004A
:105140006A006B006C0076000000000000000000A8
:10515000000000000000000000FCAC06007E5603CA
:10516000003FAB0100FCAC06007E5603003FAB01E4
:1051700000FCAC06007E5603003FAB0100000000BF
:10518000000000000000000000000000000000001F
:105190000000000000FCAC06007E5603003FAB019F
:1051A00000000000000000000000000000B4C40483
:1051B000006CDC02B0F3960100B4C404006CDC02A5
:1051C000B0F3960100B4C404006CDC02B0F39601A5
:1051D00000000000000000000000000000000000CF
:1051E000000000000000000000B4C404005A620285
:1051F000B0F3960100000000000000000000000075
:1052000000093D0000093D0040420F0000093D003B
:1052100000093D0040420F0000093D0000093D002B
:1052200040420F00000000000000000000000000ED
:1052300000000000000000000000000000093D0028
:1052400000093D0040420F00000000000000000087
:10525000000000000000000000000000000000004E
:1052600000000000000000000000004141414141F9
:1052700000000000002020202020202020202020CE
:105280002000404040404000800056484848484880
:1052900048484800303030303030303030363030F0
:1052A0003020000001010100004002400050024097
:1052B00000B002404E0055005C0000004F00560058
:1052C0005D000000510058005F005200590060006E
:1052D000500080FF80FF0000000102030405060764
:1052E00008090909090A0A0A0A0B0B0B0B0C0C0C1A
:1052F0000C0D0D0D0D0D0D0D0D0E0E0E0E0E0E0ED8
:105300000E0E0E0E0E0E0E0E0E0F0F0F0F0F0F0FB6
:105310000F0F0F0F0F0F0F0F0F0000000000000006
:105320000000020000000010000000140000000057
:105330000001000000000000E80300000100000080
:10534000140000004600000091000000000510005D
:105350003200000088130000DF070000F0070000A3
:10536000F10700005053000000000100020100009E
:10537000000000000000000000000000000000002D
:10538000000000000000000000000000000000001D
:10539000000000000000000000000000000000000D
:1053A000F0070000FF0700000000100000000000F0
:1053B0000100000000000000015000008C270020C8
:1053C000F1070000000000000000100000000000D5
:1053D00000000000010000000000000000000000CC
:1053E00000060000000000000000100001000000A6
:1053F00000000000030000000000000000000000AA
:1054000000000000020000009547000000000000BE
:10541000030000006400020000000000F8B5C04670
:10542000F8B5C0460000000001B40248844601BC43
:08543000604700BF19030020D2
:08543800C8B1FF7F0100000074
:105440004C010200004D010200002D010000002E61
:10545000010000002F0100000042010200003001A5
:105460000000003A010000003B010000003C010088
:1054700000004E0102000040010000004301020054
:105480000044010200004501020000460102000044
:105490004701020000480102000049010200004AE1
:1054A000010200004F010200005001020000510102
:1054B00002000052010200005301020000540102E8
:1054C00000005501020000560102000057010200D1
:1054D0000058010200003D010000003E01000000F4
:1054E00031010000003201000000330100000034EF
:1054F00001000000350100000059010000003601E4
:10550000000000370100000038010000000000002A
:105510000101010101010000010100000100010081
:1055200000127A00000100030101000000010000E8
:10553000000000000000000000000000000000006B
:10554000000000000301010000030300010200004D
:105550000000000101010000010300010100000042
:10556000000000000000000000000000000000003B
:10557000000000000000000000000000000000002B
:10558000000000000000000000000000000000001B
:1055900001010101010101010000000016000000ED
:1055A00028020020010100004C010200005201020B
:1055B0000000560102000057010200004F010200E6
:1055C00000510102000055010200004301020000E9
:1055D00044010200004E010200002D010000002ED7
:1055E000010000002F0100000040010000003D010B
:1055F00000000036010000003A0100000031010007
:1056000000003201000000330100000034010000FE
:105610000035010000000000100000000000000044
:10562000000000000700000004000000010000006E
:105630000500000001000000000000000000000064
:10564000000000000000000000000000000000005A
:1056500000D004400400000000000005000000002D
:10566000000000000000000000D004400500000021
:105670000000000500000000000000000000000025
:1056800000000000F0070000FF070000000000001D
:08569000000001000000000011
:1056980070B505000B4A137880210B431370140072
:1056A80023785BB2002B04DBAB695A1CF8D098470F
:1056B800F6E7044B187871231840431E984180B2CE
:0856C80070BDC0460000024065
:0400000300000411E4
:00000001FF
